{
  "contractName": "Ecommerce",
  "abi": [
    {
      "inputs": [],
      "stateMutability": "nonpayable",
      "type": "constructor"
    },
    {
      "anonymous": false,
      "inputs": [
        {
          "indexed": false,
          "internalType": "uint256",
          "name": "id",
          "type": "uint256"
        },
        {
          "indexed": false,
          "internalType": "address",
          "name": "owner",
          "type": "address"
        },
        {
          "indexed": false,
          "internalType": "string",
          "name": "name",
          "type": "string"
        },
        {
          "indexed": false,
          "internalType": "string",
          "name": "description",
          "type": "string"
        },
        {
          "indexed": false,
          "internalType": "uint256",
          "name": "price",
          "type": "uint256"
        }
      ],
      "name": "ProductAdded",
      "type": "event"
    },
    {
      "anonymous": false,
      "inputs": [
        {
          "indexed": false,
          "internalType": "uint256",
          "name": "id",
          "type": "uint256"
        },
        {
          "indexed": false,
          "internalType": "address",
          "name": "newOwner",
          "type": "address"
        },
        {
          "indexed": false,
          "internalType": "string",
          "name": "name",
          "type": "string"
        },
        {
          "indexed": false,
          "internalType": "string",
          "name": "description",
          "type": "string"
        },
        {
          "indexed": false,
          "internalType": "uint256",
          "name": "amountPaid",
          "type": "uint256"
        }
      ],
      "name": "ProductBought",
      "type": "event"
    },
    {
      "anonymous": false,
      "inputs": [
        {
          "indexed": false,
          "internalType": "address",
          "name": "userAddress",
          "type": "address"
        },
        {
          "indexed": false,
          "internalType": "string",
          "name": "name",
          "type": "string"
        },
        {
          "indexed": false,
          "internalType": "bool",
          "name": "isMerchant",
          "type": "bool"
        }
      ],
      "name": "UserAdded",
      "type": "event"
    },
    {
      "inputs": [],
      "name": "owner",
      "outputs": [
        {
          "internalType": "address",
          "name": "",
          "type": "address"
        }
      ],
      "stateMutability": "view",
      "type": "function"
    },
    {
      "inputs": [
        {
          "internalType": "uint256",
          "name": "",
          "type": "uint256"
        }
      ],
      "name": "productAdded",
      "outputs": [
        {
          "internalType": "bool",
          "name": "",
          "type": "bool"
        }
      ],
      "stateMutability": "view",
      "type": "function"
    },
    {
      "inputs": [],
      "name": "productCount",
      "outputs": [
        {
          "internalType": "uint256",
          "name": "",
          "type": "uint256"
        }
      ],
      "stateMutability": "view",
      "type": "function"
    },
    {
      "inputs": [
        {
          "internalType": "uint256",
          "name": "",
          "type": "uint256"
        }
      ],
      "name": "products",
      "outputs": [
        {
          "internalType": "uint256",
          "name": "id",
          "type": "uint256"
        },
        {
          "internalType": "address",
          "name": "owner",
          "type": "address"
        },
        {
          "internalType": "string",
          "name": "name",
          "type": "string"
        },
        {
          "internalType": "string",
          "name": "description",
          "type": "string"
        },
        {
          "internalType": "uint256",
          "name": "price",
          "type": "uint256"
        }
      ],
      "stateMutability": "view",
      "type": "function"
    },
    {
      "inputs": [
        {
          "internalType": "address",
          "name": "",
          "type": "address"
        }
      ],
      "name": "userAdded",
      "outputs": [
        {
          "internalType": "bool",
          "name": "",
          "type": "bool"
        }
      ],
      "stateMutability": "view",
      "type": "function"
    },
    {
      "inputs": [],
      "name": "userCount",
      "outputs": [
        {
          "internalType": "uint256",
          "name": "",
          "type": "uint256"
        }
      ],
      "stateMutability": "view",
      "type": "function"
    },
    {
      "inputs": [
        {
          "internalType": "address",
          "name": "",
          "type": "address"
        }
      ],
      "name": "users",
      "outputs": [
        {
          "internalType": "string",
          "name": "name",
          "type": "string"
        },
        {
          "internalType": "uint256",
          "name": "age",
          "type": "uint256"
        },
        {
          "internalType": "string",
          "name": "location",
          "type": "string"
        },
        {
          "internalType": "bool",
          "name": "isMerchant",
          "type": "bool"
        }
      ],
      "stateMutability": "view",
      "type": "function"
    },
    {
      "inputs": [
        {
          "internalType": "string",
          "name": "_name",
          "type": "string"
        },
        {
          "internalType": "uint256",
          "name": "_age",
          "type": "uint256"
        },
        {
          "internalType": "string",
          "name": "_location",
          "type": "string"
        },
        {
          "internalType": "bool",
          "name": "_isMerchant",
          "type": "bool"
        }
      ],
      "name": "join",
      "outputs": [],
      "stateMutability": "nonpayable",
      "type": "function"
    },
    {
      "inputs": [
        {
          "internalType": "string",
          "name": "_name",
          "type": "string"
        },
        {
          "internalType": "string",
          "name": "_description",
          "type": "string"
        },
        {
          "internalType": "uint256",
          "name": "_price",
          "type": "uint256"
        }
      ],
      "name": "addProduct",
      "outputs": [],
      "stateMutability": "nonpayable",
      "type": "function"
    },
    {
      "inputs": [
        {
          "internalType": "uint256",
          "name": "_id",
          "type": "uint256"
        }
      ],
      "name": "buyProduct",
      "outputs": [],
      "stateMutability": "payable",
      "type": "function"
    },
    {
      "inputs": [],
      "name": "getBalance",
      "outputs": [
        {
          "internalType": "uint256",
          "name": "",
          "type": "uint256"
        }
      ],
      "stateMutability": "view",
      "type": "function"
    },
    {
      "inputs": [],
      "name": "withdraw",
      "outputs": [],
      "stateMutability": "nonpayable",
      "type": "function"
    }
  ],
  "bytecode": "0x60806040526000600155600060025534801561001a57600080fd5b50336000806101000a81548173ffffffffffffffffffffffffffffffffffffffff021916908373ffffffffffffffffffffffffffffffffffffffff160217905550611bb08061006a6000396000f3fe6080604052600436106100a75760003560e01c80637acc0b20116100645780637acc0b20146101bc5780638642269e146101fd5780638da5cb5b14610219578063a87430ba14610244578063e0f6ef8714610284578063f28ea1c1146102af576100a7565b806307973ccf146100ac57806312065fe0146100d75780631cfe762f146101025780633ccfd60b1461013f578063634c1b37146101565780636bda722b1461017f575b600080fd5b3480156100b857600080fd5b506100c16102d8565b6040516100ce9190610f00565b60405180910390f35b3480156100e357600080fd5b506100ec6102de565b6040516100f99190610f00565b60405180910390f35b34801561010e57600080fd5b5061012960048036038101906101249190610f5b565b6102e6565b6040516101369190610fa3565b60405180910390f35b34801561014b57600080fd5b50610154610306565b005b34801561016257600080fd5b5061017d60048036038101906101789190611130565b6103fd565b005b34801561018b57600080fd5b506101a660048036038101906101a1919061122d565b610623565b6040516101b39190610fa3565b60405180910390f35b3480156101c857600080fd5b506101e360048036038101906101de9190610f5b565b610643565b6040516101f49594939291906112e8565b60405180910390f35b61021760048036038101906102129190610f5b565b6107a9565b005b34801561022557600080fd5b5061022e610a06565b60405161023b9190611349565b60405180910390f35b34801561025057600080fd5b5061026b6004803603810190610266919061122d565b610a2a565b60405161027b9493929190611364565b60405180910390f35b34801561029057600080fd5b50610299610b77565b6040516102a69190610f00565b60405180910390f35b3480156102bb57600080fd5b506102d660048036038101906102d191906113b7565b610b7d565b005b60015481565b600047905090565b60066020528060005260406000206000915054906101000a900460ff1681565b3373ffffffffffffffffffffffffffffffffffffffff1660008054906101000a900473ffffffffffffffffffffffffffffffffffffffff1673ffffffffffffffffffffffffffffffffffffffff1614610394576040517f08c379a000000000000000000000000000000000000000000000000000000000815260040161038b906114b4565b60405180910390fd5b60008054906101000a900473ffffffffffffffffffffffffffffffffffffffff1673ffffffffffffffffffffffffffffffffffffffff166108fc479081150290604051600060405180830381858888f193505050501580156103fa573d6000803e3d6000fd5b50565b60001515600460003373ffffffffffffffffffffffffffffffffffffffff1673ffffffffffffffffffffffffffffffffffffffff16815260200190815260200160002060009054906101000a900460ff16151514610490576040517f08c379a000000000000000000000000000000000000000000000000000000000815260040161048790611520565b60405180910390fd5b60606040518060a00160405280868152602001858152602001848152602001831515815260200182815250600360003373ffffffffffffffffffffffffffffffffffffffff1673ffffffffffffffffffffffffffffffffffffffff168152602001908152602001600020600082015181600001908161050f919061174c565b5060208201518160010155604082015181600201908161052f919061174c565b5060608201518160030160006101000a81548160ff021916908315150217905550608082015181600401908051906020019061056c929190610e7d565b509050506001600460003373ffffffffffffffffffffffffffffffffffffffff1673ffffffffffffffffffffffffffffffffffffffff16815260200190815260200160002060006101000a81548160ff02191690831515021790555060018060008282546105da919061184d565b925050819055507f8da4d08b660148e3aeec5166e2b51fd9cac5dfac04471806402bea745db272f733868460405161061493929190611881565b60405180910390a15050505050565b60046020528060005260406000206000915054906101000a900460ff1681565b60056020528060005260406000206000915090508060000154908060010160009054906101000a900473ffffffffffffffffffffffffffffffffffffffff16908060020180546106929061156f565b80601f01602080910402602001604051908101604052809291908181526020018280546106be9061156f565b801561070b5780601f106106e05761010080835404028352916020019161070b565b820191906000526020600020905b8154815290600101906020018083116106ee57829003601f168201915b5050505050908060030180546107209061156f565b80601f016020809104026020016040519081016040528092919081815260200182805461074c9061156f565b80156107995780601f1061076e57610100808354040283529160200191610799565b820191906000526020600020905b81548152906001019060200180831161077c57829003601f168201915b5050505050908060040154905085565b60011515600460003373ffffffffffffffffffffffffffffffffffffffff1673ffffffffffffffffffffffffffffffffffffffff16815260200190815260200160002060009054906101000a900460ff1615151461083c576040517f08c379a00000000000000000000000000000000000000000000000000000000081526004016108339061190b565b60405180910390fd5b6000600560008381526020019081526020016000209050600115156006600084815260200190815260200160002060009054906101000a900460ff161515146108ba576040517f08c379a00000000000000000000000000000000000000000000000000000000081526004016108b190611977565b60405180910390fd5b8060040154341015610901576040517f08c379a00000000000000000000000000000000000000000000000000000000081526004016108f890611a09565b60405180910390fd5b60008160010160009054906101000a900473ffffffffffffffffffffffffffffffffffffffff1690508073ffffffffffffffffffffffffffffffffffffffff166108fc83600401549081150290604051600060405180830381858888f19350505050158015610974573d6000803e3d6000fd5b50338260010160006101000a81548173ffffffffffffffffffffffffffffffffffffffff021916908373ffffffffffffffffffffffffffffffffffffffff1602179055507f890198f450cc9eb353b80ba8b1b3f5b52de3394a92d412f8058b8c64d888f10d8333846002018560030186600401546040516109f9959493929190611aad565b60405180910390a1505050565b60008054906101000a900473ffffffffffffffffffffffffffffffffffffffff1681565b6003602052806000526040600020600091509050806000018054610a4d9061156f565b80601f0160208091040260200160405190810160405280929190818152602001828054610a799061156f565b8015610ac65780601f10610a9b57610100808354040283529160200191610ac6565b820191906000526020600020905b815481529060010190602001808311610aa957829003601f168201915b505050505090806001015490806002018054610ae19061156f565b80601f0160208091040260200160405190810160405280929190818152602001828054610b0d9061156f565b8015610b5a5780601f10610b2f57610100808354040283529160200191610b5a565b820191906000526020600020905b815481529060010190602001808311610b3d57829003601f168201915b5050505050908060030160009054906101000a900460ff16905084565b60025481565b60011515600460003373ffffffffffffffffffffffffffffffffffffffff1673ffffffffffffffffffffffffffffffffffffffff16815260200190815260200160002060009054906101000a900460ff16151514610c10576040517f08c379a0000000000000000000000000000000000000000000000000000000008152600401610c079061190b565b60405180910390fd5b60011515600360003373ffffffffffffffffffffffffffffffffffffffff1673ffffffffffffffffffffffffffffffffffffffff16815260200190815260200160002060030160009054906101000a900460ff16151514610ca6576040517f08c379a0000000000000000000000000000000000000000000000000000000008152600401610c9d90611b5a565b60405180910390fd5b600160026000828254610cb9919061184d565b925050819055506040518060a0016040528060025481526020013373ffffffffffffffffffffffffffffffffffffffff168152602001848152602001838152602001828152506005600060025481526020019081526020016000206000820151816000015560208201518160010160006101000a81548173ffffffffffffffffffffffffffffffffffffffff021916908373ffffffffffffffffffffffffffffffffffffffff1602179055506040820151816002019081610d7a919061174c565b506060820151816003019081610d90919061174c565b5060808201518160040155905050600160066000600254815260200190815260200160002060006101000a81548160ff021916908315150217905550600360003373ffffffffffffffffffffffffffffffffffffffff1673ffffffffffffffffffffffffffffffffffffffff16815260200190815260200160002060040160025490806001815401808255809150506001900390600052602060002001600090919091909150557f52630f3652e7d07b2844e0defb3cdb6dfb6af3139fa6c527ca64cbbc6debe36160025433858585604051610e709594939291906112e8565b60405180910390a1505050565b828054828255906000526020600020908101928215610eb9579160200282015b82811115610eb8578251825591602001919060010190610e9d565b5b509050610ec69190610eca565b5090565b5b80821115610ee3576000816000905550600101610ecb565b5090565b6000819050919050565b610efa81610ee7565b82525050565b6000602082019050610f156000830184610ef1565b92915050565b6000604051905090565b600080fd5b600080fd5b610f3881610ee7565b8114610f4357600080fd5b50565b600081359050610f5581610f2f565b92915050565b600060208284031215610f7157610f70610f25565b5b6000610f7f84828501610f46565b91505092915050565b60008115159050919050565b610f9d81610f88565b82525050565b6000602082019050610fb86000830184610f94565b92915050565b600080fd5b600080fd5b6000601f19601f8301169050919050565b7f4e487b7100000000000000000000000000000000000000000000000000000000600052604160045260246000fd5b61101182610fc8565b810181811067ffffffffffffffff821117156110305761102f610fd9565b5b80604052505050565b6000611043610f1b565b905061104f8282611008565b919050565b600067ffffffffffffffff82111561106f5761106e610fd9565b5b61107882610fc8565b9050602081019050919050565b82818337600083830152505050565b60006110a76110a284611054565b611039565b9050828152602081018484840111156110c3576110c2610fc3565b5b6110ce848285611085565b509392505050565b600082601f8301126110eb576110ea610fbe565b5b81356110fb848260208601611094565b91505092915050565b61110d81610f88565b811461111857600080fd5b50565b60008135905061112a81611104565b92915050565b6000806000806080858703121561114a57611149610f25565b5b600085013567ffffffffffffffff81111561116857611167610f2a565b5b611174878288016110d6565b945050602061118587828801610f46565b935050604085013567ffffffffffffffff8111156111a6576111a5610f2a565b5b6111b2878288016110d6565b92505060606111c38782880161111b565b91505092959194509250565b600073ffffffffffffffffffffffffffffffffffffffff82169050919050565b60006111fa826111cf565b9050919050565b61120a816111ef565b811461121557600080fd5b50565b60008135905061122781611201565b92915050565b60006020828403121561124357611242610f25565b5b600061125184828501611218565b91505092915050565b611263816111ef565b82525050565b600081519050919050565b600082825260208201905092915050565b60005b838110156112a3578082015181840152602081019050611288565b60008484015250505050565b60006112ba82611269565b6112c48185611274565b93506112d4818560208601611285565b6112dd81610fc8565b840191505092915050565b600060a0820190506112fd6000830188610ef1565b61130a602083018761125a565b818103604083015261131c81866112af565b9050818103606083015261133081856112af565b905061133f6080830184610ef1565b9695505050505050565b600060208201905061135e600083018461125a565b92915050565b6000608082019050818103600083015261137e81876112af565b905061138d6020830186610ef1565b818103604083015261139f81856112af565b90506113ae6060830184610f94565b95945050505050565b6000806000606084860312156113d0576113cf610f25565b5b600084013567ffffffffffffffff8111156113ee576113ed610f2a565b5b6113fa868287016110d6565b935050602084013567ffffffffffffffff81111561141b5761141a610f2a565b5b611427868287016110d6565b925050604061143886828701610f46565b9150509250925092565b7f4f6e6c79206f776e65722063616e2063616c6c20746869732066756e6374696f60008201527f6e00000000000000000000000000000000000000000000000000000000000000602082015250565b600061149e602183611274565b91506114a982611442565b604082019050919050565b600060208201905081810360008301526114cd81611491565b9050919050565b7f557365722063616e277420626520616464656420747769636500000000000000600082015250565b600061150a601983611274565b9150611515826114d4565b602082019050919050565b60006020820190508181036000830152611539816114fd565b9050919050565b7f4e487b7100000000000000000000000000000000000000000000000000000000600052602260045260246000fd5b6000600282049050600182168061158757607f821691505b60208210810361159a57611599611540565b5b50919050565b60008190508160005260206000209050919050565b60006020601f8301049050919050565b600082821b905092915050565b6000600883026116027fffffffffffffffffffffffffffffffffffffffffffffffffffffffffffffffff826115c5565b61160c86836115c5565b95508019841693508086168417925050509392505050565b6000819050919050565b600061164961164461163f84610ee7565b611624565b610ee7565b9050919050565b6000819050919050565b6116638361162e565b61167761166f82611650565b8484546115d2565b825550505050565b600090565b61168c61167f565b61169781848461165a565b505050565b5b818110156116bb576116b0600082611684565b60018101905061169d565b5050565b601f821115611700576116d1816115a0565b6116da846115b5565b810160208510156116e9578190505b6116fd6116f5856115b5565b83018261169c565b50505b505050565b600082821c905092915050565b600061172360001984600802611705565b1980831691505092915050565b600061173c8383611712565b9150826002028217905092915050565b61175582611269565b67ffffffffffffffff81111561176e5761176d610fd9565b5b611778825461156f565b6117838282856116bf565b600060209050601f8311600181146117b657600084156117a4578287015190505b6117ae8582611730565b865550611816565b601f1984166117c4866115a0565b60005b828110156117ec578489015182556001820191506020850194506020810190506117c7565b868310156118095784890151611805601f891682611712565b8355505b6001600288020188555050505b505050505050565b7f4e487b7100000000000000000000000000000000000000000000000000000000600052601160045260246000fd5b600061185882610ee7565b915061186383610ee7565b925082820190508082111561187b5761187a61181e565b5b92915050565b6000606082019050611896600083018661125a565b81810360208301526118a881856112af565b90506118b76040830184610f94565b949350505050565b7f796f7520617265206e6f74206120726567697374657265642075736572000000600082015250565b60006118f5601d83611274565b9150611900826118bf565b602082019050919050565b60006020820190508181036000830152611924816118e8565b9050919050565b7f546869732070726f6475637420646f6573206e6f742065786973740000000000600082015250565b6000611961601b83611274565b915061196c8261192b565b602082019050919050565b6000602082019050818103600083015261199081611954565b9050919050565b7f596f75206469646e27742073656e6420656e6f75676820657468657220746f2060008201527f62757920746869732070726f6475637400000000000000000000000000000000602082015250565b60006119f3603083611274565b91506119fe82611997565b604082019050919050565b60006020820190508181036000830152611a22816119e6565b9050919050565b60008154611a368161156f565b611a408186611274565b94506001821660008114611a5b5760018114611a7157611aa4565b60ff198316865281151560200286019350611aa4565b611a7a856115a0565b60005b83811015611a9c57815481890152600182019150602081019050611a7d565b808801955050505b50505092915050565b600060a082019050611ac26000830188610ef1565b611acf602083018761125a565b8181036040830152611ae18186611a29565b90508181036060830152611af58185611a29565b9050611b046080830184610ef1565b9695505050505050565b7f4f6e6c79206d65726368616e74732063616e206164642070726f647563747300600082015250565b6000611b44601f83611274565b9150611b4f82611b0e565b602082019050919050565b60006020820190508181036000830152611b7381611b37565b905091905056fea2646970667358221220e60247aa8d7b8d8dc368ea09578a77fef32d7b2302ea11baa44f9f0941b2b36b64736f6c63430008130033",
  "immutableReferences": {},
  "source": "// SPDX-License-Identifier: MIT\r\npragma experimental ABIEncoderV2;\r\npragma solidity >=0.4.22 <0.9.0;\r\n\r\ncontract Ecommerce {\r\n    address public owner;\r\n\r\n    constructor(){\r\n        owner = msg.sender;\r\n    }\r\n\r\n    uint public userCount= 0;\r\n    uint public productCount= 0;\r\n\r\n    struct Product {\r\n        uint id;\r\n        address owner;\r\n        string name;\r\n        string description;\r\n        uint price;\r\n    }\r\n\r\n    struct User{\r\n        string name;\r\n        uint age;\r\n        string location;\r\n        bool isMerchant;\r\n        uint[] products;\r\n    }\r\n\r\n    event UserAdded(address userAddress, string name, bool isMerchant);\r\n    event ProductAdded(uint id, address owner, string name, string description, uint price);\r\n    event ProductBought(uint id, address newOwner, string name, string description, uint amountPaid);\r\n\r\n    mapping(address => User) public users;\r\n    mapping(address => bool) public userAdded;\r\n\r\n    mapping(uint => Product) public products;\r\n    mapping(uint => bool) public productAdded;\r\n\r\n    modifier onlyOwner(){\r\n        require(owner == msg.sender, \"Only owner can call this function\");\r\n        _;\r\n    }\r\n\r\n    modifier addUserOnce(){\r\n        require(userAdded[msg.sender] == false, \"User can't be added twice\");\r\n        _;\r\n    }\r\n\r\n    modifier addProductOnlyByRegisteredUser(){\r\n        require(userAdded[msg.sender] == true, \"you are not a registered user\");\r\n        _;\r\n    }\r\n\r\n    modifier onlyMerchantCanAddProduct(){\r\n        require(users[msg.sender].isMerchant == true, \"Only merchants can add products\");\r\n        _;\r\n    }\r\n\r\n    function join(string memory _name, uint _age, string memory _location, bool _isMerchant) external addUserOnce{\r\n        uint[] memory emptyProductsArray;\r\n        users[msg.sender] = User({name:_name, location:_location, age:_age, isMerchant:_isMerchant, products:emptyProductsArray});\r\n        userAdded[msg.sender] = true;\r\n        userCount += 1;\r\n        emit UserAdded(msg.sender, _name, _isMerchant);\r\n    }\r\n\r\n    function addProduct(string memory _name, string memory _description, uint _price) external addProductOnlyByRegisteredUser onlyMerchantCanAddProduct{\r\n        productCount += 1;\r\n        products[productCount] = Product({name:_name, description:_description, owner:msg.sender, id:productCount, price:_price});\r\n        productAdded[productCount] = true;\r\n        users[msg.sender].products.push(productCount);\r\n        emit ProductAdded(productCount, msg.sender, _name, _description, _price);\r\n    }\r\n\r\n    function buyProduct(uint _id) external payable addProductOnlyByRegisteredUser{\r\n        Product storage _product = products[_id];\r\n        require(productAdded[_id] == true, \"This product does not exist\");\r\n        require(msg.value >= _product.price, \"You didn't send enough ether to buy this product\");\r\n        address payable addressOwner = payable(_product.owner);\r\n        addressOwner.transfer(_product.price);\r\n        _product.owner = msg.sender;\r\n        emit ProductBought(_id, msg.sender, _product.name, _product.description, _product.price);\r\n    }\r\n\r\n    function getBalance() external view returns(uint){\r\n        return address(this).balance;\r\n    }\r\n\r\n    function withdraw() external onlyOwner{\r\n        payable(owner).transfer(address(this).balance);\r\n    }\r\n }",
  "sourcePath": "D:\\SupplyChainDev\\trufflerscf\\contracts\\Ecommerce.sol",
  "compiler": {
    "name": "solc",
    "version": "0.8.19+commit.7dd6d404.Emscripten.clang"
  },
  "schemaVersion": "3.4.16",
  "updatedAt": "2023-10-22T14:01:00.007Z",
  "devdoc": {
    "kind": "dev",
    "methods": {},
    "version": 1
  },
  "userdoc": {
    "kind": "user",
    "methods": {},
    "version": 1
  }
}