{
  "contractName": "OrderCRUD",
  "abi": [
    {
      "anonymous": false,
      "inputs": [
        {
          "indexed": false,
          "internalType": "uint256",
          "name": "orderId",
          "type": "uint256"
        }
      ],
      "name": "OrderDistributed",
      "type": "event"
    },
    {
      "anonymous": false,
      "inputs": [
        {
          "indexed": false,
          "internalType": "uint256",
          "name": "orderId",
          "type": "uint256"
        }
      ],
      "name": "OrderProduced",
      "type": "event"
    },
    {
      "anonymous": false,
      "inputs": [
        {
          "indexed": false,
          "internalType": "uint256",
          "name": "orderId",
          "type": "uint256"
        },
        {
          "indexed": false,
          "internalType": "address",
          "name": "buyer",
          "type": "address"
        },
        {
          "indexed": false,
          "internalType": "string",
          "name": "productName",
          "type": "string"
        },
        {
          "indexed": false,
          "internalType": "uint256",
          "name": "quantity",
          "type": "uint256"
        },
        {
          "indexed": false,
          "internalType": "uint256",
          "name": "price",
          "type": "uint256"
        }
      ],
      "name": "OrderPurchased",
      "type": "event"
    },
    {
      "anonymous": false,
      "inputs": [
        {
          "indexed": false,
          "internalType": "uint256",
          "name": "orderId",
          "type": "uint256"
        }
      ],
      "name": "OrderSold",
      "type": "event"
    },
    {
      "inputs": [
        {
          "internalType": "uint256",
          "name": "",
          "type": "uint256"
        }
      ],
      "name": "orders",
      "outputs": [
        {
          "internalType": "uint256",
          "name": "orderId",
          "type": "uint256"
        },
        {
          "internalType": "address",
          "name": "buyer",
          "type": "address"
        },
        {
          "internalType": "string",
          "name": "productName",
          "type": "string"
        },
        {
          "internalType": "uint256",
          "name": "quantity",
          "type": "uint256"
        },
        {
          "internalType": "uint256",
          "name": "price",
          "type": "uint256"
        },
        {
          "internalType": "enum OrderCRUD.State",
          "name": "state",
          "type": "uint8"
        }
      ],
      "stateMutability": "view",
      "type": "function"
    },
    {
      "inputs": [
        {
          "internalType": "uint256",
          "name": "orderId",
          "type": "uint256"
        },
        {
          "internalType": "string",
          "name": "productName",
          "type": "string"
        },
        {
          "internalType": "uint256",
          "name": "quantity",
          "type": "uint256"
        },
        {
          "internalType": "uint256",
          "name": "price",
          "type": "uint256"
        }
      ],
      "name": "purchaseOrder",
      "outputs": [],
      "stateMutability": "nonpayable",
      "type": "function"
    },
    {
      "inputs": [
        {
          "internalType": "uint256",
          "name": "orderId",
          "type": "uint256"
        }
      ],
      "name": "produceOrder",
      "outputs": [],
      "stateMutability": "nonpayable",
      "type": "function"
    },
    {
      "inputs": [
        {
          "internalType": "uint256",
          "name": "orderId",
          "type": "uint256"
        }
      ],
      "name": "distributeOrder",
      "outputs": [],
      "stateMutability": "nonpayable",
      "type": "function"
    },
    {
      "inputs": [
        {
          "internalType": "uint256",
          "name": "orderId",
          "type": "uint256"
        }
      ],
      "name": "sellOrder",
      "outputs": [],
      "stateMutability": "nonpayable",
      "type": "function"
    }
  ],
  "bytecode": "0x608060405234801561001057600080fd5b50611210806100206000396000f3fe608060405234801561001057600080fd5b50600436106100575760003560e01c806397514d901461005c5780639ed43f7814610078578063a85c38ef14610094578063b28f63c6146100c9578063dff8c79f146100e5575b600080fd5b61007660048036038101906100719190610835565b610101565b005b610092600480360381019061008d9190610835565b610289565b005b6100ae60048036038101906100a99190610835565b610411565b6040516100c0969594939291906109b9565b60405180910390f35b6100e360048036038101906100de9190610835565b610502565b005b6100ff60048036038101906100fa9190610b56565b61068a565b005b600080600083815260200190815260200160002090503373ffffffffffffffffffffffffffffffffffffffff168160010160009054906101000a900473ffffffffffffffffffffffffffffffffffffffff1673ffffffffffffffffffffffffffffffffffffffff16146101a9576040517f08c379a00000000000000000000000000000000000000000000000000000000081526004016101a090610c25565b60405180910390fd5b600260038111156101bd576101bc610942565b5b8160050160009054906101000a900460ff1660038111156101e1576101e0610942565b5b14610221576040517f08c379a000000000000000000000000000000000000000000000000000000000815260040161021890610cb7565b60405180910390fd5b60038160050160006101000a81548160ff0219169083600381111561024957610248610942565b5b02179055507f96de3317765b9589220bd90de91811f2f2aa89a6761e47a30609d4ce8b6f930d8260405161027d9190610cd7565b60405180910390a15050565b600080600083815260200190815260200160002090503373ffffffffffffffffffffffffffffffffffffffff168160010160009054906101000a900473ffffffffffffffffffffffffffffffffffffffff1673ffffffffffffffffffffffffffffffffffffffff1614610331576040517f08c379a000000000000000000000000000000000000000000000000000000000815260040161032890610d3e565b60405180910390fd5b6001600381111561034557610344610942565b5b8160050160009054906101000a900460ff16600381111561036957610368610942565b5b146103a9576040517f08c379a00000000000000000000000000000000000000000000000000000000081526004016103a090610daa565b60405180910390fd5b60028160050160006101000a81548160ff021916908360038111156103d1576103d0610942565b5b02179055507f663f9188dbfcf34eacf4a6b025921c2991951baa93e67b170c4848a222a1d310826040516104059190610cd7565b60405180910390a15050565b60006020528060005260406000206000915090508060000154908060010160009054906101000a900473ffffffffffffffffffffffffffffffffffffffff169080600201805461046090610df9565b80601f016020809104026020016040519081016040528092919081815260200182805461048c90610df9565b80156104d95780601f106104ae576101008083540402835291602001916104d9565b820191906000526020600020905b8154815290600101906020018083116104bc57829003601f168201915b5050505050908060030154908060040154908060050160009054906101000a900460ff16905086565b600080600083815260200190815260200160002090503373ffffffffffffffffffffffffffffffffffffffff168160010160009054906101000a900473ffffffffffffffffffffffffffffffffffffffff1673ffffffffffffffffffffffffffffffffffffffff16146105aa576040517f08c379a00000000000000000000000000000000000000000000000000000000081526004016105a190610e76565b60405180910390fd5b600060038111156105be576105bd610942565b5b8160050160009054906101000a900460ff1660038111156105e2576105e1610942565b5b14610622576040517f08c379a000000000000000000000000000000000000000000000000000000000815260040161061990610ee2565b60405180910390fd5b60018160050160006101000a81548160ff0219169083600381111561064a57610649610942565b5b02179055507f3bad19d908d1f611230437295b7f523fdd938f865e2673053bc1783af8aef8838260405161067e9190610cd7565b60405180910390a15050565b60006040518060c001604052808681526020013373ffffffffffffffffffffffffffffffffffffffff168152602001858152602001848152602001838152602001600060038111156106df576106de610942565b5b8152509050806000808781526020019081526020016000206000820151816000015560208201518160010160006101000a81548173ffffffffffffffffffffffffffffffffffffffff021916908373ffffffffffffffffffffffffffffffffffffffff160217905550604082015181600201908161075d91906110ae565b50606082015181600301556080820151816004015560a08201518160050160006101000a81548160ff0219169083600381111561079d5761079c610942565b5b02179055509050507f44c7694d63fbaf5df5dc00d292d15797a9bddd3e47a74eeebd814b7fdff2a58585338686866040516107dc959493929190611180565b60405180910390a15050505050565b6000604051905090565b600080fd5b600080fd5b6000819050919050565b610812816107ff565b811461081d57600080fd5b50565b60008135905061082f81610809565b92915050565b60006020828403121561084b5761084a6107f5565b5b600061085984828501610820565b91505092915050565b61086b816107ff565b82525050565b600073ffffffffffffffffffffffffffffffffffffffff82169050919050565b600061089c82610871565b9050919050565b6108ac81610891565b82525050565b600081519050919050565b600082825260208201905092915050565b60005b838110156108ec5780820151818401526020810190506108d1565b60008484015250505050565b6000601f19601f8301169050919050565b6000610914826108b2565b61091e81856108bd565b935061092e8185602086016108ce565b610937816108f8565b840191505092915050565b7f4e487b7100000000000000000000000000000000000000000000000000000000600052602160045260246000fd5b6004811061098257610981610942565b5b50565b600081905061099382610971565b919050565b60006109a382610985565b9050919050565b6109b381610998565b82525050565b600060c0820190506109ce6000830189610862565b6109db60208301886108a3565b81810360408301526109ed8187610909565b90506109fc6060830186610862565b610a096080830185610862565b610a1660a08301846109aa565b979650505050505050565b600080fd5b600080fd5b7f4e487b7100000000000000000000000000000000000000000000000000000000600052604160045260246000fd5b610a63826108f8565b810181811067ffffffffffffffff82111715610a8257610a81610a2b565b5b80604052505050565b6000610a956107eb565b9050610aa18282610a5a565b919050565b600067ffffffffffffffff821115610ac157610ac0610a2b565b5b610aca826108f8565b9050602081019050919050565b82818337600083830152505050565b6000610af9610af484610aa6565b610a8b565b905082815260208101848484011115610b1557610b14610a26565b5b610b20848285610ad7565b509392505050565b600082601f830112610b3d57610b3c610a21565b5b8135610b4d848260208601610ae6565b91505092915050565b60008060008060808587031215610b7057610b6f6107f5565b5b6000610b7e87828801610820565b945050602085013567ffffffffffffffff811115610b9f57610b9e6107fa565b5b610bab87828801610b28565b9350506040610bbc87828801610820565b9250506060610bcd87828801610820565b91505092959194509250565b7f4f6e6c792062757965722063616e2073656c6c206f7264657200000000000000600082015250565b6000610c0f6019836108bd565b9150610c1a82610bd9565b602082019050919050565b60006020820190508181036000830152610c3e81610c02565b9050919050565b7f4f72646572206d75737420626520696e2044697374726962757465642073746160008201527f7465000000000000000000000000000000000000000000000000000000000000602082015250565b6000610ca16022836108bd565b9150610cac82610c45565b604082019050919050565b60006020820190508181036000830152610cd081610c94565b9050919050565b6000602082019050610cec6000830184610862565b92915050565b7f4f6e6c792062757965722063616e2064697374726962757465206f7264657200600082015250565b6000610d28601f836108bd565b9150610d3382610cf2565b602082019050919050565b60006020820190508181036000830152610d5781610d1b565b9050919050565b7f4f72646572206d75737420626520696e2050726f647563656420737461746500600082015250565b6000610d94601f836108bd565b9150610d9f82610d5e565b602082019050919050565b60006020820190508181036000830152610dc381610d87565b9050919050565b7f4e487b7100000000000000000000000000000000000000000000000000000000600052602260045260246000fd5b60006002820490506001821680610e1157607f821691505b602082108103610e2457610e23610dca565b5b50919050565b7f4f6e6c792062757965722063616e2070726f64756365206f7264657200000000600082015250565b6000610e60601c836108bd565b9150610e6b82610e2a565b602082019050919050565b60006020820190508181036000830152610e8f81610e53565b9050919050565b7f4f72646572206d75737420626520696e20507572636861736564207374617465600082015250565b6000610ecc6020836108bd565b9150610ed782610e96565b602082019050919050565b60006020820190508181036000830152610efb81610ebf565b9050919050565b60008190508160005260206000209050919050565b60006020601f8301049050919050565b600082821b905092915050565b600060088302610f647fffffffffffffffffffffffffffffffffffffffffffffffffffffffffffffffff82610f27565b610f6e8683610f27565b95508019841693508086168417925050509392505050565b6000819050919050565b6000610fab610fa6610fa1846107ff565b610f86565b6107ff565b9050919050565b6000819050919050565b610fc583610f90565b610fd9610fd182610fb2565b848454610f34565b825550505050565b600090565b610fee610fe1565b610ff9818484610fbc565b505050565b5b8181101561101d57611012600082610fe6565b600181019050610fff565b5050565b601f8211156110625761103381610f02565b61103c84610f17565b8101602085101561104b578190505b61105f61105785610f17565b830182610ffe565b50505b505050565b600082821c905092915050565b600061108560001984600802611067565b1980831691505092915050565b600061109e8383611074565b9150826002028217905092915050565b6110b7826108b2565b67ffffffffffffffff8111156110d0576110cf610a2b565b5b6110da8254610df9565b6110e5828285611021565b600060209050601f8311600181146111185760008415611106578287015190505b6111108582611092565b865550611178565b601f19841661112686610f02565b60005b8281101561114e57848901518255600182019150602085019450602081019050611129565b8683101561116b5784890151611167601f891682611074565b8355505b6001600288020188555050505b505050505050565b600060a0820190506111956000830188610862565b6111a260208301876108a3565b81810360408301526111b48186610909565b90506111c36060830185610862565b6111d06080830184610862565b969550505050505056fea2646970667358221220e749bc10d8934d92bbc867af7915c0a778faff1ce1a72e9d1511a9e785f4758f64736f6c63430008130033",
  "immutableReferences": {},
  "source": "// SPDX-License-Identifier: MIT\r\npragma solidity >=0.4.22 <0.9.0;\r\n\r\ncontract OrderCRUD {\r\n    enum State { Purchased, Produced, Distributed, Sold }\r\n\r\n    struct Order {\r\n        uint256 orderId;\r\n        address buyer;\r\n        string productName;\r\n        uint256 quantity;\r\n        uint256 price;\r\n        State state;\r\n    }\r\n\r\n    mapping (uint256 => Order) public orders;\r\n\r\n    event OrderPurchased(uint256 orderId, address buyer, string productName, uint256 quantity, uint256 price);\r\n    event OrderProduced(uint256 orderId);\r\n    event OrderDistributed(uint256 orderId);\r\n    event OrderSold(uint256 orderId);\r\n\r\n    function purchaseOrder(uint256 orderId, string memory productName, uint256 quantity, uint256 price) public {\r\n        Order memory order = Order({\r\n            orderId: orderId,\r\n            buyer: msg.sender,\r\n            productName: productName,\r\n            quantity: quantity,\r\n            price: price,\r\n            state: State.Purchased\r\n        });\r\n\r\n        orders[orderId] = order;\r\n\r\n        emit OrderPurchased(orderId, msg.sender, productName, quantity, price);\r\n    }\r\n\r\n    function produceOrder(uint256 orderId) public {\r\n        Order storage order = orders[orderId];\r\n\r\n        require(order.buyer == msg.sender, \"Only buyer can produce order\");\r\n        require(order.state == State.Purchased, \"Order must be in Purchased state\");\r\n\r\n        order.state = State.Produced;\r\n\r\n        emit OrderProduced(orderId);\r\n    }\r\n\r\n    function distributeOrder(uint256 orderId) public {\r\n        Order storage order = orders[orderId];\r\n\r\n        require(order.buyer == msg.sender, \"Only buyer can distribute order\");\r\n        require(order.state == State.Produced, \"Order must be in Produced state\");\r\n\r\n        order.state = State.Distributed;\r\n\r\n        emit OrderDistributed(orderId);\r\n    }\r\n\r\n    function sellOrder(uint256 orderId) public {\r\n        Order storage order = orders[orderId];\r\n\r\n        require(order.buyer == msg.sender, \"Only buyer can sell order\");\r\n        require(order.state == State.Distributed, \"Order must be in Distributed state\");\r\n\r\n        order.state = State.Sold;\r\n\r\n        emit OrderSold(orderId);\r\n    }\r\n}",
  "sourcePath": "D:\\SupplyChainDev\\trufflerscf\\contracts\\OrderCRUD.sol",
  "compiler": {
    "name": "solc",
    "version": "0.8.19+commit.7dd6d404.Emscripten.clang"
  },
  "schemaVersion": "3.4.16",
  "updatedAt": "2023-10-28T08:28:16.343Z",
  "devdoc": {
    "kind": "dev",
    "methods": {},
    "version": 1
  },
  "userdoc": {
    "kind": "user",
    "methods": {},
    "version": 1
  }
}