{
  "contractName": "ProductCRUD",
  "abi": [
    {
      "inputs": [],
      "name": "productCount",
      "outputs": [
        {
          "internalType": "uint256",
          "name": "",
          "type": "uint256"
        }
      ],
      "stateMutability": "view",
      "type": "function"
    },
    {
      "inputs": [
        {
          "internalType": "uint256",
          "name": "",
          "type": "uint256"
        }
      ],
      "name": "products",
      "outputs": [
        {
          "internalType": "uint256",
          "name": "productId",
          "type": "uint256"
        },
        {
          "internalType": "string",
          "name": "productName",
          "type": "string"
        },
        {
          "internalType": "string",
          "name": "productType",
          "type": "string"
        },
        {
          "internalType": "uint256",
          "name": "quantity",
          "type": "uint256"
        },
        {
          "internalType": "string",
          "name": "location",
          "type": "string"
        }
      ],
      "stateMutability": "view",
      "type": "function"
    },
    {
      "inputs": [
        {
          "internalType": "string",
          "name": "_productName",
          "type": "string"
        },
        {
          "internalType": "string",
          "name": "_productType",
          "type": "string"
        },
        {
          "internalType": "uint256",
          "name": "_quantity",
          "type": "uint256"
        },
        {
          "internalType": "string",
          "name": "_location",
          "type": "string"
        }
      ],
      "name": "createProduct",
      "outputs": [],
      "stateMutability": "nonpayable",
      "type": "function"
    },
    {
      "inputs": [
        {
          "internalType": "uint256",
          "name": "_productId",
          "type": "uint256"
        }
      ],
      "name": "getProductById",
      "outputs": [
        {
          "internalType": "uint256",
          "name": "",
          "type": "uint256"
        },
        {
          "internalType": "string",
          "name": "",
          "type": "string"
        },
        {
          "internalType": "string",
          "name": "",
          "type": "string"
        },
        {
          "internalType": "uint256",
          "name": "",
          "type": "uint256"
        },
        {
          "internalType": "string",
          "name": "",
          "type": "string"
        }
      ],
      "stateMutability": "view",
      "type": "function"
    }
  ],
  "bytecode": "0x608060405234801561001057600080fd5b50610cb0806100206000396000f3fe608060405234801561001057600080fd5b506004361061004c5760003560e01c806312c89196146100515780633f70c2b41461006d5780637acc0b20146100a1578063e0f6ef87146100d5575b600080fd5b61006b6004803603810190610066919061072c565b6100f3565b005b610087600480360381019061008291906107e7565b6101a7565b6040516100989594939291906108a2565b60405180910390f35b6100bb60048036038101906100b691906107e7565b6103c8565b6040516100cc9594939291906108a2565b60405180910390f35b6100dd610596565b6040516100ea919061090a565b60405180910390f35b6001600081548092919061010690610954565b91905055506040518060a0016040528060015481526020018581526020018481526020018381526020018281525060008060015481526020019081526020016000206000820151816000015560208201518160010190816101679190610ba8565b50604082015181600201908161017d9190610ba8565b5060608201518160030155608082015181600401908161019d9190610ba8565b5090505050505050565b60006060806000606060008060008881526020019081526020016000206040518060a0016040529081600082015481526020016001820180546101e9906109cb565b80601f0160208091040260200160405190810160405280929190818152602001828054610215906109cb565b80156102625780601f1061023757610100808354040283529160200191610262565b820191906000526020600020905b81548152906001019060200180831161024557829003601f168201915b5050505050815260200160028201805461027b906109cb565b80601f01602080910402602001604051908101604052809291908181526020018280546102a7906109cb565b80156102f45780601f106102c9576101008083540402835291602001916102f4565b820191906000526020600020905b8154815290600101906020018083116102d757829003601f168201915b5050505050815260200160038201548152602001600482018054610317906109cb565b80601f0160208091040260200160405190810160405280929190818152602001828054610343906109cb565b80156103905780601f1061036557610100808354040283529160200191610390565b820191906000526020600020905b81548152906001019060200180831161037357829003601f168201915b505050505081525050905080600001518160200151826040015183606001518460800151955095509550955095505091939590929450565b60006020528060005260406000206000915090508060000154908060010180546103f1906109cb565b80601f016020809104026020016040519081016040528092919081815260200182805461041d906109cb565b801561046a5780601f1061043f5761010080835404028352916020019161046a565b820191906000526020600020905b81548152906001019060200180831161044d57829003601f168201915b50505050509080600201805461047f906109cb565b80601f01602080910402602001604051908101604052809291908181526020018280546104ab906109cb565b80156104f85780601f106104cd576101008083540402835291602001916104f8565b820191906000526020600020905b8154815290600101906020018083116104db57829003601f168201915b505050505090806003015490806004018054610513906109cb565b80601f016020809104026020016040519081016040528092919081815260200182805461053f906109cb565b801561058c5780601f106105615761010080835404028352916020019161058c565b820191906000526020600020905b81548152906001019060200180831161056f57829003601f168201915b5050505050905085565b60015481565b6000604051905090565b600080fd5b600080fd5b600080fd5b600080fd5b6000601f19601f8301169050919050565b7f4e487b7100000000000000000000000000000000000000000000000000000000600052604160045260246000fd5b610603826105ba565b810181811067ffffffffffffffff82111715610622576106216105cb565b5b80604052505050565b600061063561059c565b905061064182826105fa565b919050565b600067ffffffffffffffff821115610661576106606105cb565b5b61066a826105ba565b9050602081019050919050565b82818337600083830152505050565b600061069961069484610646565b61062b565b9050828152602081018484840111156106b5576106b46105b5565b5b6106c0848285610677565b509392505050565b600082601f8301126106dd576106dc6105b0565b5b81356106ed848260208601610686565b91505092915050565b6000819050919050565b610709816106f6565b811461071457600080fd5b50565b60008135905061072681610700565b92915050565b60008060008060808587031215610746576107456105a6565b5b600085013567ffffffffffffffff811115610764576107636105ab565b5b610770878288016106c8565b945050602085013567ffffffffffffffff811115610791576107906105ab565b5b61079d878288016106c8565b93505060406107ae87828801610717565b925050606085013567ffffffffffffffff8111156107cf576107ce6105ab565b5b6107db878288016106c8565b91505092959194509250565b6000602082840312156107fd576107fc6105a6565b5b600061080b84828501610717565b91505092915050565b61081d816106f6565b82525050565b600081519050919050565b600082825260208201905092915050565b60005b8381101561085d578082015181840152602081019050610842565b60008484015250505050565b600061087482610823565b61087e818561082e565b935061088e81856020860161083f565b610897816105ba565b840191505092915050565b600060a0820190506108b76000830188610814565b81810360208301526108c98187610869565b905081810360408301526108dd8186610869565b90506108ec6060830185610814565b81810360808301526108fe8184610869565b90509695505050505050565b600060208201905061091f6000830184610814565b92915050565b7f4e487b7100000000000000000000000000000000000000000000000000000000600052601160045260246000fd5b600061095f826106f6565b91507fffffffffffffffffffffffffffffffffffffffffffffffffffffffffffffffff820361099157610990610925565b5b600182019050919050565b7f4e487b7100000000000000000000000000000000000000000000000000000000600052602260045260246000fd5b600060028204905060018216806109e357607f821691505b6020821081036109f6576109f561099c565b5b50919050565b60008190508160005260206000209050919050565b60006020601f8301049050919050565b600082821b905092915050565b600060088302610a5e7fffffffffffffffffffffffffffffffffffffffffffffffffffffffffffffffff82610a21565b610a688683610a21565b95508019841693508086168417925050509392505050565b6000819050919050565b6000610aa5610aa0610a9b846106f6565b610a80565b6106f6565b9050919050565b6000819050919050565b610abf83610a8a565b610ad3610acb82610aac565b848454610a2e565b825550505050565b600090565b610ae8610adb565b610af3818484610ab6565b505050565b5b81811015610b1757610b0c600082610ae0565b600181019050610af9565b5050565b601f821115610b5c57610b2d816109fc565b610b3684610a11565b81016020851015610b45578190505b610b59610b5185610a11565b830182610af8565b50505b505050565b600082821c905092915050565b6000610b7f60001984600802610b61565b1980831691505092915050565b6000610b988383610b6e565b9150826002028217905092915050565b610bb182610823565b67ffffffffffffffff811115610bca57610bc96105cb565b5b610bd482546109cb565b610bdf828285610b1b565b600060209050601f831160018114610c125760008415610c00578287015190505b610c0a8582610b8c565b865550610c72565b601f198416610c20866109fc565b60005b82811015610c4857848901518255600182019150602085019450602081019050610c23565b86831015610c655784890151610c61601f891682610b6e565b8355505b6001600288020188555050505b50505050505056fea264697066735822122033d6bef677c6a1b8e2c1d9ecb0fc38c327ef24d0f331da0c62ccafac98bc45dd64736f6c63430008130033",
  "immutableReferences": {},
  "source": "// SPDX-License-Identifier: MIT\r\npragma solidity >=0.4.22 <0.9.0;\r\n\r\ncontract ProductCRUD {\r\n    struct Product {\r\n        uint productId;\r\n        string productName;\r\n        string productType;\r\n        uint quantity;\r\n        string location;\r\n    }\r\n\r\n    mapping (uint => Product) public products;\r\n    uint public productCount;\r\n\r\n    function createProduct(string memory _productName, string memory _productType, uint _quantity, string memory _location) public {\r\n        productCount ++;\r\n        products[productCount] = Product(productCount, _productName, _productType, _quantity, _location);\r\n    }\r\n\r\n    function getProductById(uint _productId) public view returns (uint, string memory, string memory, uint, string memory) {\r\n        Product memory product = products[_productId];\r\n        return (product.productId, product.productName, product.productType, product.quantity, product.location);\r\n    }\r\n}",
  "sourcePath": "D:\\SupplyChainDev\\trufflerscf\\contracts\\ProductCRUD.sol",
  "compiler": {
    "name": "solc",
    "version": "0.8.19+commit.7dd6d404.Emscripten.clang"
  },
  "schemaVersion": "3.4.16",
  "updatedAt": "2024-02-27T08:12:39.929Z",
  "devdoc": {
    "kind": "dev",
    "methods": {},
    "version": 1
  },
  "userdoc": {
    "kind": "user",
    "methods": {},
    "version": 1
  }
}