{
  "contractName": "SupplyChainDemo",
  "abi": [
    {
      "inputs": [],
      "stateMutability": "nonpayable",
      "type": "constructor"
    },
    {
      "inputs": [
        {
          "internalType": "uint256",
          "name": "",
          "type": "uint256"
        }
      ],
      "name": "DIS",
      "outputs": [
        {
          "internalType": "address",
          "name": "addr",
          "type": "address"
        },
        {
          "internalType": "uint256",
          "name": "id",
          "type": "uint256"
        },
        {
          "internalType": "string",
          "name": "name",
          "type": "string"
        },
        {
          "internalType": "string",
          "name": "place",
          "type": "string"
        }
      ],
      "stateMutability": "view",
      "type": "function"
    },
    {
      "inputs": [
        {
          "internalType": "uint256",
          "name": "",
          "type": "uint256"
        }
      ],
      "name": "MAN",
      "outputs": [
        {
          "internalType": "address",
          "name": "addr",
          "type": "address"
        },
        {
          "internalType": "uint256",
          "name": "id",
          "type": "uint256"
        },
        {
          "internalType": "string",
          "name": "name",
          "type": "string"
        },
        {
          "internalType": "string",
          "name": "place",
          "type": "string"
        }
      ],
      "stateMutability": "view",
      "type": "function"
    },
    {
      "inputs": [
        {
          "internalType": "uint256",
          "name": "",
          "type": "uint256"
        }
      ],
      "name": "MedicineStock",
      "outputs": [
        {
          "internalType": "uint256",
          "name": "id",
          "type": "uint256"
        },
        {
          "internalType": "string",
          "name": "name",
          "type": "string"
        },
        {
          "internalType": "string",
          "name": "description",
          "type": "string"
        },
        {
          "internalType": "uint256",
          "name": "RMSid",
          "type": "uint256"
        },
        {
          "internalType": "uint256",
          "name": "MANid",
          "type": "uint256"
        },
        {
          "internalType": "uint256",
          "name": "DISid",
          "type": "uint256"
        },
        {
          "internalType": "uint256",
          "name": "RETid",
          "type": "uint256"
        },
        {
          "internalType": "enum SupplyChainDemo.STAGE",
          "name": "stage",
          "type": "uint8"
        }
      ],
      "stateMutability": "view",
      "type": "function"
    },
    {
      "inputs": [],
      "name": "Owner",
      "outputs": [
        {
          "internalType": "address",
          "name": "",
          "type": "address"
        }
      ],
      "stateMutability": "view",
      "type": "function"
    },
    {
      "inputs": [
        {
          "internalType": "uint256",
          "name": "",
          "type": "uint256"
        }
      ],
      "name": "RET",
      "outputs": [
        {
          "internalType": "address",
          "name": "addr",
          "type": "address"
        },
        {
          "internalType": "uint256",
          "name": "id",
          "type": "uint256"
        },
        {
          "internalType": "string",
          "name": "name",
          "type": "string"
        },
        {
          "internalType": "string",
          "name": "place",
          "type": "string"
        }
      ],
      "stateMutability": "view",
      "type": "function"
    },
    {
      "inputs": [
        {
          "internalType": "uint256",
          "name": "",
          "type": "uint256"
        }
      ],
      "name": "RMS",
      "outputs": [
        {
          "internalType": "address",
          "name": "addr",
          "type": "address"
        },
        {
          "internalType": "uint256",
          "name": "id",
          "type": "uint256"
        },
        {
          "internalType": "string",
          "name": "name",
          "type": "string"
        },
        {
          "internalType": "string",
          "name": "place",
          "type": "string"
        }
      ],
      "stateMutability": "view",
      "type": "function"
    },
    {
      "inputs": [],
      "name": "disCtr",
      "outputs": [
        {
          "internalType": "uint256",
          "name": "",
          "type": "uint256"
        }
      ],
      "stateMutability": "view",
      "type": "function"
    },
    {
      "inputs": [],
      "name": "manCtr",
      "outputs": [
        {
          "internalType": "uint256",
          "name": "",
          "type": "uint256"
        }
      ],
      "stateMutability": "view",
      "type": "function"
    },
    {
      "inputs": [],
      "name": "medicineCtr",
      "outputs": [
        {
          "internalType": "uint256",
          "name": "",
          "type": "uint256"
        }
      ],
      "stateMutability": "view",
      "type": "function"
    },
    {
      "inputs": [],
      "name": "retCtr",
      "outputs": [
        {
          "internalType": "uint256",
          "name": "",
          "type": "uint256"
        }
      ],
      "stateMutability": "view",
      "type": "function"
    },
    {
      "inputs": [],
      "name": "rmsCtr",
      "outputs": [
        {
          "internalType": "uint256",
          "name": "",
          "type": "uint256"
        }
      ],
      "stateMutability": "view",
      "type": "function"
    },
    {
      "inputs": [
        {
          "internalType": "uint256",
          "name": "_medicineID",
          "type": "uint256"
        }
      ],
      "name": "showStage",
      "outputs": [
        {
          "internalType": "string",
          "name": "",
          "type": "string"
        }
      ],
      "stateMutability": "view",
      "type": "function"
    },
    {
      "inputs": [
        {
          "internalType": "address",
          "name": "_address",
          "type": "address"
        },
        {
          "internalType": "string",
          "name": "_name",
          "type": "string"
        },
        {
          "internalType": "string",
          "name": "_place",
          "type": "string"
        }
      ],
      "name": "addRMS",
      "outputs": [],
      "stateMutability": "nonpayable",
      "type": "function"
    },
    {
      "inputs": [
        {
          "internalType": "address",
          "name": "_address",
          "type": "address"
        },
        {
          "internalType": "string",
          "name": "_name",
          "type": "string"
        },
        {
          "internalType": "string",
          "name": "_place",
          "type": "string"
        }
      ],
      "name": "addManufacturer",
      "outputs": [],
      "stateMutability": "nonpayable",
      "type": "function"
    },
    {
      "inputs": [
        {
          "internalType": "address",
          "name": "_address",
          "type": "address"
        },
        {
          "internalType": "string",
          "name": "_name",
          "type": "string"
        },
        {
          "internalType": "string",
          "name": "_place",
          "type": "string"
        }
      ],
      "name": "addDistributor",
      "outputs": [],
      "stateMutability": "nonpayable",
      "type": "function"
    },
    {
      "inputs": [
        {
          "internalType": "address",
          "name": "_address",
          "type": "address"
        },
        {
          "internalType": "string",
          "name": "_name",
          "type": "string"
        },
        {
          "internalType": "string",
          "name": "_place",
          "type": "string"
        }
      ],
      "name": "addRetailer",
      "outputs": [],
      "stateMutability": "nonpayable",
      "type": "function"
    },
    {
      "inputs": [
        {
          "internalType": "uint256",
          "name": "_medicineID",
          "type": "uint256"
        }
      ],
      "name": "RMSsupply",
      "outputs": [],
      "stateMutability": "nonpayable",
      "type": "function"
    },
    {
      "inputs": [
        {
          "internalType": "uint256",
          "name": "_medicineID",
          "type": "uint256"
        }
      ],
      "name": "Manufacturing",
      "outputs": [],
      "stateMutability": "nonpayable",
      "type": "function"
    },
    {
      "inputs": [
        {
          "internalType": "uint256",
          "name": "_medicineID",
          "type": "uint256"
        }
      ],
      "name": "Distribute",
      "outputs": [],
      "stateMutability": "nonpayable",
      "type": "function"
    },
    {
      "inputs": [
        {
          "internalType": "uint256",
          "name": "_medicineID",
          "type": "uint256"
        }
      ],
      "name": "Retail",
      "outputs": [],
      "stateMutability": "nonpayable",
      "type": "function"
    },
    {
      "inputs": [
        {
          "internalType": "uint256",
          "name": "_medicineID",
          "type": "uint256"
        }
      ],
      "name": "sold",
      "outputs": [],
      "stateMutability": "nonpayable",
      "type": "function"
    },
    {
      "inputs": [
        {
          "internalType": "string",
          "name": "_name",
          "type": "string"
        },
        {
          "internalType": "string",
          "name": "_description",
          "type": "string"
        }
      ],
      "name": "addMedicine",
      "outputs": [],
      "stateMutability": "nonpayable",
      "type": "function"
    }
  ],
  "bytecode": "0x60806040526000600155600060025560006003556000600455600060055534801561002957600080fd5b50336000806101000a81548173ffffffffffffffffffffffffffffffffffffffff021916908373ffffffffffffffffffffffffffffffffffffffff16021790555061264b806100796000396000f3fe608060405234801561001057600080fd5b50600436106101425760003560e01c806386c18275116100b8578063b4a99a4e1161007c578063b4a99a4e1461033d578063cc4030691461035b578063dd2863981461038e578063e101a2e0146103ac578063eb1a06b5146103dc578063eef5cb401461041357610142565b806386c18275146102af5780638f4183cc146102cb5780639c03facb146102e7578063a48d335a14610303578063a95f29d91461031f57610142565b8063438e9c4d1161010a578063438e9c4d146101ec5780634def474a1461020a57806359bf286f146102265780636a992c9f146102595780637e43d94d14610275578063857ddb041461029357610142565b80632a4af440146101475780632b0187ac146101635780632b70b08d146101965780632bdb2e6b146101b25780633d753a1c146101d0575b600080fd5b610161600480360381019061015c9190611f0f565b610446565b005b61017d60048036038101906101789190611fd0565b610589565b60405161018d949392919061209a565b60405180910390f35b6101b060048036038101906101ab9190611f0f565b6106e9565b005b6101ba61082c565b6040516101c791906120ed565b60405180910390f35b6101ea60048036038101906101e59190611fd0565b610832565b005b6101f4610919565b60405161020191906120ed565b60405180910390f35b610224600480360381019061021f9190611fd0565b61091f565b005b610240600480360381019061023b9190611fd0565b610a06565b604051610250949392919061209a565b60405180910390f35b610273600480360381019061026e9190611f0f565b610b66565b005b61027d610ca9565b60405161028a91906120ed565b60405180910390f35b6102ad60048036038101906102a89190611f0f565b610caf565b005b6102c960048036038101906102c49190611fd0565b610df2565b005b6102e560048036038101906102e09190612108565b610ed9565b005b61030160048036038101906102fc9190611fd0565b61107f565b005b61031d60048036038101906103189190611fd0565b61116d565b005b610327611254565b60405161033491906120ed565b60405180910390f35b61034561125a565b6040516103529190612180565b60405180910390f35b61037560048036038101906103709190611fd0565b61127e565b604051610385949392919061209a565b60405180910390f35b6103966113de565b6040516103a391906120ed565b60405180910390f35b6103c660048036038101906103c19190611fd0565b6113e4565b6040516103d3919061219b565b60405180910390f35b6103f660048036038101906103f19190611fd0565b61177a565b60405161040a989796959493929190612234565b60405180910390f35b61042d60048036038101906104289190611fd0565b6118df565b60405161043d949392919061209a565b60405180910390f35b60008054906101000a900473ffffffffffffffffffffffffffffffffffffffff1673ffffffffffffffffffffffffffffffffffffffff163373ffffffffffffffffffffffffffffffffffffffff161461049e57600080fd5b600460008154809291906104b1906122ef565b919050555060405180608001604052808473ffffffffffffffffffffffffffffffffffffffff16815260200160045481526020018381526020018281525060096000600454815260200190815260200160002060008201518160000160006101000a81548173ffffffffffffffffffffffffffffffffffffffff021916908373ffffffffffffffffffffffffffffffffffffffff16021790555060208201518160010155604082015181600201908161056a9190612543565b5060608201518160030190816105809190612543565b50905050505050565b60096020528060005260406000206000915090508060000160009054906101000a900473ffffffffffffffffffffffffffffffffffffffff16908060010154908060020180546105d890612366565b80601f016020809104026020016040519081016040528092919081815260200182805461060490612366565b80156106515780601f1061062657610100808354040283529160200191610651565b820191906000526020600020905b81548152906001019060200180831161063457829003601f168201915b50505050509080600301805461066690612366565b80601f016020809104026020016040519081016040528092919081815260200182805461069290612366565b80156106df5780601f106106b4576101008083540402835291602001916106df565b820191906000526020600020905b8154815290600101906020018083116106c257829003601f168201915b5050505050905084565b60008054906101000a900473ffffffffffffffffffffffffffffffffffffffff1673ffffffffffffffffffffffffffffffffffffffff163373ffffffffffffffffffffffffffffffffffffffff161461074157600080fd5b60026000815480929190610754906122ef565b919050555060405180608001604052808473ffffffffffffffffffffffffffffffffffffffff16815260200160025481526020018381526020018281525060076000600254815260200190815260200160002060008201518160000160006101000a81548173ffffffffffffffffffffffffffffffffffffffff021916908373ffffffffffffffffffffffffffffffffffffffff16021790555060208201518160010155604082015181600201908161080d9190612543565b5060608201518160030190816108239190612543565b50905050505050565b60045481565b60008111801561084457506001548111155b61084d57600080fd5b600061085833611a3f565b90506000811161086757600080fd5b6003600581111561087b5761087a6121bd565b5b6006600084815260200190815260200160002060070160009054906101000a900460ff1660058111156108b1576108b06121bd565b5b146108bb57600080fd5b80600660008481526020019081526020016000206006018190555060046006600084815260200190815260200160002060070160006101000a81548160ff021916908360058111156109105761090f6121bd565b5b02179055505050565b60035481565b60008111801561093157506001548111155b61093a57600080fd5b600061094533611b05565b90506000811161095457600080fd5b60026005811115610968576109676121bd565b5b6006600084815260200190815260200160002060070160009054906101000a900460ff16600581111561099e5761099d6121bd565b5b146109a857600080fd5b80600660008481526020019081526020016000206005018190555060036006600084815260200190815260200160002060070160006101000a81548160ff021916908360058111156109fd576109fc6121bd565b5b02179055505050565b600a6020528060005260406000206000915090508060000160009054906101000a900473ffffffffffffffffffffffffffffffffffffffff1690806001015490806002018054610a5590612366565b80601f0160208091040260200160405190810160405280929190818152602001828054610a8190612366565b8015610ace5780601f10610aa357610100808354040283529160200191610ace565b820191906000526020600020905b815481529060010190602001808311610ab157829003601f168201915b505050505090806003018054610ae390612366565b80601f0160208091040260200160405190810160405280929190818152602001828054610b0f90612366565b8015610b5c5780601f10610b3157610100808354040283529160200191610b5c565b820191906000526020600020905b815481529060010190602001808311610b3f57829003601f168201915b5050505050905084565b60008054906101000a900473ffffffffffffffffffffffffffffffffffffffff1673ffffffffffffffffffffffffffffffffffffffff163373ffffffffffffffffffffffffffffffffffffffff1614610bbe57600080fd5b60036000815480929190610bd1906122ef565b919050555060405180608001604052808473ffffffffffffffffffffffffffffffffffffffff16815260200160035481526020018381526020018281525060086000600354815260200190815260200160002060008201518160000160006101000a81548173ffffffffffffffffffffffffffffffffffffffff021916908373ffffffffffffffffffffffffffffffffffffffff160217905550602082015181600101556040820151816002019081610c8a9190612543565b506060820151816003019081610ca09190612543565b50905050505050565b60055481565b60008054906101000a900473ffffffffffffffffffffffffffffffffffffffff1673ffffffffffffffffffffffffffffffffffffffff163373ffffffffffffffffffffffffffffffffffffffff1614610d0757600080fd5b60056000815480929190610d1a906122ef565b919050555060405180608001604052808473ffffffffffffffffffffffffffffffffffffffff168152602001600554815260200183815260200182815250600a6000600554815260200190815260200160002060008201518160000160006101000a81548173ffffffffffffffffffffffffffffffffffffffff021916908373ffffffffffffffffffffffffffffffffffffffff160217905550602082015181600101556040820151816002019081610dd39190612543565b506060820151816003019081610de99190612543565b50905050505050565b600081118015610e0457506001548111155b610e0d57600080fd5b6000610e1833611bcb565b905060008111610e2757600080fd5b60006005811115610e3b57610e3a6121bd565b5b6006600084815260200190815260200160002060070160009054906101000a900460ff166005811115610e7157610e706121bd565b5b14610e7b57600080fd5b80600660008481526020019081526020016000206003018190555060016006600084815260200190815260200160002060070160006101000a81548160ff02191690836005811115610ed057610ecf6121bd565b5b02179055505050565b60008054906101000a900473ffffffffffffffffffffffffffffffffffffffff1673ffffffffffffffffffffffffffffffffffffffff163373ffffffffffffffffffffffffffffffffffffffff1614610f3157600080fd5b6000600254118015610f4557506000600354115b8015610f5357506000600454115b8015610f6157506000600554115b610f6a57600080fd5b60016000815480929190610f7d906122ef565b919050555060405180610100016040528060015481526020018381526020018281526020016000815260200160008152602001600081526020016000815260200160006005811115610fd257610fd16121bd565b5b8152506006600060015481526020019081526020016000206000820151816000015560208201518160010190816110099190612543565b50604082015181600201908161101f9190612543565b50606082015181600301556080820151816004015560a0820151816005015560c0820151816006015560e08201518160070160006101000a81548160ff02191690836005811115611073576110726121bd565b5b02179055509050505050565b60008111801561109157506001548111155b61109a57600080fd5b60006110a533611a3f565b9050600081116110b457600080fd5b600660008381526020019081526020016000206006015481146110d657600080fd5b600460058111156110ea576110e96121bd565b5b6006600084815260200190815260200160002060070160009054906101000a900460ff1660058111156111205761111f6121bd565b5b1461112a57600080fd5b60056006600084815260200190815260200160002060070160006101000a81548160ff02191690836005811115611164576111636121bd565b5b02179055505050565b60008111801561117f57506001548111155b61118857600080fd5b600061119333611c91565b9050600081116111a257600080fd5b600160058111156111b6576111b56121bd565b5b6006600084815260200190815260200160002060070160009054906101000a900460ff1660058111156111ec576111eb6121bd565b5b146111f657600080fd5b80600660008481526020019081526020016000206004018190555060026006600084815260200190815260200160002060070160006101000a81548160ff0219169083600581111561124b5761124a6121bd565b5b02179055505050565b60015481565b60008054906101000a900473ffffffffffffffffffffffffffffffffffffffff1681565b60086020528060005260406000206000915090508060000160009054906101000a900473ffffffffffffffffffffffffffffffffffffffff16908060010154908060020180546112cd90612366565b80601f01602080910402602001604051908101604052809291908181526020018280546112f990612366565b80156113465780601f1061131b57610100808354040283529160200191611346565b820191906000526020600020905b81548152906001019060200180831161132957829003601f168201915b50505050509080600301805461135b90612366565b80601f016020809104026020016040519081016040528092919081815260200182805461138790612366565b80156113d45780601f106113a9576101008083540402835291602001916113d4565b820191906000526020600020905b8154815290600101906020018083116113b757829003601f168201915b5050505050905084565b60025481565b60606000600154116113f557600080fd5b60006005811115611409576114086121bd565b5b6006600084815260200190815260200160002060070160009054906101000a900460ff16600581111561143f5761143e6121bd565b5b03611481576040518060400160405280601081526020017f4d65646963696e65204f726465726564000000000000000000000000000000008152509050611775565b60016005811115611495576114946121bd565b5b6006600084815260200190815260200160002060070160009054906101000a900460ff1660058111156114cb576114ca6121bd565b5b0361150d576040518060400160405280601981526020017f526177204d6174657269616c20537570706c79205374616765000000000000008152509050611775565b60026005811115611521576115206121bd565b5b6006600084815260200190815260200160002060070160009054906101000a900460ff166005811115611557576115566121bd565b5b03611599576040518060400160405280601381526020017f4d616e75666163747572696e67205374616765000000000000000000000000008152509050611775565b600360058111156115ad576115ac6121bd565b5b6006600084815260200190815260200160002060070160009054906101000a900460ff1660058111156115e3576115e26121bd565b5b03611625576040518060400160405280601281526020017f446973747269627574696f6e20537461676500000000000000000000000000008152509050611775565b60046005811115611639576116386121bd565b5b6006600084815260200190815260200160002060070160009054906101000a900460ff16600581111561166f5761166e6121bd565b5b036116b1576040518060400160405280600c81526020017f52657461696c20537461676500000000000000000000000000000000000000008152509050611775565b6005808111156116c4576116c36121bd565b5b6006600084815260200190815260200160002060070160009054906101000a900460ff1660058111156116fa576116f96121bd565b5b0361173c576040518060400160405280600d81526020017f4d65646963696e6520536f6c64000000000000000000000000000000000000008152509050611775565b6040518060400160405280600a81526020017f4e6f206d6573736167650000000000000000000000000000000000000000000081525090505b919050565b60066020528060005260406000206000915090508060000154908060010180546117a390612366565b80601f01602080910402602001604051908101604052809291908181526020018280546117cf90612366565b801561181c5780601f106117f15761010080835404028352916020019161181c565b820191906000526020600020905b8154815290600101906020018083116117ff57829003601f168201915b50505050509080600201805461183190612366565b80601f016020809104026020016040519081016040528092919081815260200182805461185d90612366565b80156118aa5780601f1061187f576101008083540402835291602001916118aa565b820191906000526020600020905b81548152906001019060200180831161188d57829003601f168201915b5050505050908060030154908060040154908060050154908060060154908060070160009054906101000a900460ff16905088565b60076020528060005260406000206000915090508060000160009054906101000a900473ffffffffffffffffffffffffffffffffffffffff169080600101549080600201805461192e90612366565b80601f016020809104026020016040519081016040528092919081815260200182805461195a90612366565b80156119a75780601f1061197c576101008083540402835291602001916119a7565b820191906000526020600020905b81548152906001019060200180831161198a57829003601f168201915b5050505050908060030180546119bc90612366565b80601f01602080910402602001604051908101604052809291908181526020018280546119e890612366565b8015611a355780601f10611a0a57610100808354040283529160200191611a35565b820191906000526020600020905b815481529060010190602001808311611a1857829003601f168201915b5050505050905084565b60008060055411611a4f57600080fd5b6000600190505b6005548111611afa578273ffffffffffffffffffffffffffffffffffffffff16600a600083815260200190815260200160002060000160009054906101000a900473ffffffffffffffffffffffffffffffffffffffff1673ffffffffffffffffffffffffffffffffffffffff1603611ae757600a600082815260200190815260200160002060010154915050611b00565b8080611af2906122ef565b915050611a56565b50600090505b919050565b60008060045411611b1557600080fd5b6000600190505b6004548111611bc0578273ffffffffffffffffffffffffffffffffffffffff166009600083815260200190815260200160002060000160009054906101000a900473ffffffffffffffffffffffffffffffffffffffff1673ffffffffffffffffffffffffffffffffffffffff1603611bad576009600082815260200190815260200160002060010154915050611bc6565b8080611bb8906122ef565b915050611b1c565b50600090505b919050565b60008060025411611bdb57600080fd5b6000600190505b6002548111611c86578273ffffffffffffffffffffffffffffffffffffffff166007600083815260200190815260200160002060000160009054906101000a900473ffffffffffffffffffffffffffffffffffffffff1673ffffffffffffffffffffffffffffffffffffffff1603611c73576007600082815260200190815260200160002060010154915050611c8c565b8080611c7e906122ef565b915050611be2565b50600090505b919050565b60008060035411611ca157600080fd5b6000600190505b6003548111611d4c578273ffffffffffffffffffffffffffffffffffffffff166008600083815260200190815260200160002060000160009054906101000a900473ffffffffffffffffffffffffffffffffffffffff1673ffffffffffffffffffffffffffffffffffffffff1603611d39576008600082815260200190815260200160002060010154915050611d52565b8080611d44906122ef565b915050611ca8565b50600090505b919050565b6000604051905090565b600080fd5b600080fd5b600073ffffffffffffffffffffffffffffffffffffffff82169050919050565b6000611d9682611d6b565b9050919050565b611da681611d8b565b8114611db157600080fd5b50565b600081359050611dc381611d9d565b92915050565b600080fd5b600080fd5b6000601f19601f8301169050919050565b7f4e487b7100000000000000000000000000000000000000000000000000000000600052604160045260246000fd5b611e1c82611dd3565b810181811067ffffffffffffffff82111715611e3b57611e3a611de4565b5b80604052505050565b6000611e4e611d57565b9050611e5a8282611e13565b919050565b600067ffffffffffffffff821115611e7a57611e79611de4565b5b611e8382611dd3565b9050602081019050919050565b82818337600083830152505050565b6000611eb2611ead84611e5f565b611e44565b905082815260208101848484011115611ece57611ecd611dce565b5b611ed9848285611e90565b509392505050565b600082601f830112611ef657611ef5611dc9565b5b8135611f06848260208601611e9f565b91505092915050565b600080600060608486031215611f2857611f27611d61565b5b6000611f3686828701611db4565b935050602084013567ffffffffffffffff811115611f5757611f56611d66565b5b611f6386828701611ee1565b925050604084013567ffffffffffffffff811115611f8457611f83611d66565b5b611f9086828701611ee1565b9150509250925092565b6000819050919050565b611fad81611f9a565b8114611fb857600080fd5b50565b600081359050611fca81611fa4565b92915050565b600060208284031215611fe657611fe5611d61565b5b6000611ff484828501611fbb565b91505092915050565b61200681611d8b565b82525050565b61201581611f9a565b82525050565b600081519050919050565b600082825260208201905092915050565b60005b8381101561205557808201518184015260208101905061203a565b60008484015250505050565b600061206c8261201b565b6120768185612026565b9350612086818560208601612037565b61208f81611dd3565b840191505092915050565b60006080820190506120af6000830187611ffd565b6120bc602083018661200c565b81810360408301526120ce8185612061565b905081810360608301526120e28184612061565b905095945050505050565b6000602082019050612102600083018461200c565b92915050565b6000806040838503121561211f5761211e611d61565b5b600083013567ffffffffffffffff81111561213d5761213c611d66565b5b61214985828601611ee1565b925050602083013567ffffffffffffffff81111561216a57612169611d66565b5b61217685828601611ee1565b9150509250929050565b60006020820190506121956000830184611ffd565b92915050565b600060208201905081810360008301526121b58184612061565b905092915050565b7f4e487b7100000000000000000000000000000000000000000000000000000000600052602160045260246000fd5b600681106121fd576121fc6121bd565b5b50565b600081905061220e826121ec565b919050565b600061221e82612200565b9050919050565b61222e81612213565b82525050565b60006101008201905061224a600083018b61200c565b818103602083015261225c818a612061565b905081810360408301526122708189612061565b905061227f606083018861200c565b61228c608083018761200c565b61229960a083018661200c565b6122a660c083018561200c565b6122b360e0830184612225565b9998505050505050505050565b7f4e487b7100000000000000000000000000000000000000000000000000000000600052601160045260246000fd5b60006122fa82611f9a565b91507fffffffffffffffffffffffffffffffffffffffffffffffffffffffffffffffff820361232c5761232b6122c0565b5b600182019050919050565b7f4e487b7100000000000000000000000000000000000000000000000000000000600052602260045260246000fd5b6000600282049050600182168061237e57607f821691505b60208210810361239157612390612337565b5b50919050565b60008190508160005260206000209050919050565b60006020601f8301049050919050565b600082821b905092915050565b6000600883026123f97fffffffffffffffffffffffffffffffffffffffffffffffffffffffffffffffff826123bc565b61240386836123bc565b95508019841693508086168417925050509392505050565b6000819050919050565b600061244061243b61243684611f9a565b61241b565b611f9a565b9050919050565b6000819050919050565b61245a83612425565b61246e61246682612447565b8484546123c9565b825550505050565b600090565b612483612476565b61248e818484612451565b505050565b5b818110156124b2576124a760008261247b565b600181019050612494565b5050565b601f8211156124f7576124c881612397565b6124d1846123ac565b810160208510156124e0578190505b6124f46124ec856123ac565b830182612493565b50505b505050565b600082821c905092915050565b600061251a600019846008026124fc565b1980831691505092915050565b60006125338383612509565b9150826002028217905092915050565b61254c8261201b565b67ffffffffffffffff81111561256557612564611de4565b5b61256f8254612366565b61257a8282856124b6565b600060209050601f8311600181146125ad576000841561259b578287015190505b6125a58582612527565b86555061260d565b601f1984166125bb86612397565b60005b828110156125e3578489015182556001820191506020850194506020810190506125be565b8683101561260057848901516125fc601f891682612509565b8355505b6001600288020188555050505b50505050505056fea2646970667358221220c61c87ee1e78b2a760116de86d97e02619c07b9ffa02568d0d58005f1c1a8ee164736f6c63430008130033",
  "immutableReferences": {},
  "source": "// SPDX-License-Identifier: MIT\r\npragma solidity >=0.4.22 <0.9.0;\r\n\r\ncontract SupplyChainDemo {\r\n    //Smart Contract owner will be the person who deploys the contract only he can authorize various roles like retailer, Manufacturer,etc\r\n    address public Owner;\r\n\r\n    //note this constructor is called once when be deployed on blockchain\r\n    constructor() {\r\n        Owner = msg.sender;\r\n    }\r\n\r\n    //Roles (flow of pharma supply chain)\r\n    // RawMaterialSupplier; //This is where Manufacturer will get raw materials to make medicines\r\n    // Manufacturer;  //Various WHO guidelines should be followed by this person\r\n    // Distributor; //This guy distributes the medicines to retailers\r\n    // Retailer; //Normal customer buys from the retailer\r\n\r\n    //modifier to make sure only the owner is using the function\r\n    modifier onlyByOwner() {\r\n        require(msg.sender == Owner);\r\n        _;\r\n    }\r\n\r\n    //stages of a medicine in pharma supply chain\r\n    enum STAGE {\r\n        Init,\r\n        RawMaterialSupply,\r\n        Manufacture,\r\n        Distribution,\r\n        Retail,\r\n        sold\r\n    }\r\n    \r\n    //using this we are going to track every single medicine the owner orders\r\n\r\n    //Medicine count\r\n    uint256 public medicineCtr = 0;\r\n    //Raw material supplier count\r\n    uint256 public rmsCtr = 0;\r\n    //Manufacturer count\r\n    uint256 public manCtr = 0;\r\n    //distributor count\r\n    uint256 public disCtr = 0;\r\n    //retailer count\r\n    uint256 public retCtr = 0;\r\n\r\n    //To store information about the medicine\r\n    struct medicine {\r\n        uint256 id; //unique medicine id\r\n        string name; //name of the medicine\r\n        string description; //about medicine\r\n        uint256 RMSid; //id of the Raw Material supplier for this particular medicine\r\n        uint256 MANid; //id of the Manufacturer for this particular medicine\r\n        uint256 DISid; //id of the distributor for this particular medicine\r\n        uint256 RETid; //id of the retailer for this particular medicine\r\n        STAGE stage; //current medicine stage\r\n    }\r\n\r\n    //To store all the medicines on the blockchain\r\n    mapping(uint256 => medicine) public MedicineStock;\r\n\r\n    //To show status to client applications\r\n    function showStage(uint256 _medicineID)\r\n        public\r\n        view\r\n        returns (string memory)\r\n    {\r\n        require(medicineCtr > 0);\r\n        if (MedicineStock[_medicineID].stage == STAGE.Init)\r\n            return \"Medicine Ordered\";\r\n        else if (MedicineStock[_medicineID].stage == STAGE.RawMaterialSupply)\r\n            return \"Raw Material Supply Stage\";\r\n        else if (MedicineStock[_medicineID].stage == STAGE.Manufacture)\r\n            return \"Manufacturing Stage\";\r\n        else if (MedicineStock[_medicineID].stage == STAGE.Distribution)\r\n            return \"Distribution Stage\";\r\n        else if (MedicineStock[_medicineID].stage == STAGE.Retail)\r\n            return \"Retail Stage\";\r\n        else if (MedicineStock[_medicineID].stage == STAGE.sold)\r\n            return \"Medicine Sold\";\r\n        else\r\n            return \"No message\";\r\n    }\r\n\r\n    //To store information about raw material supplier\r\n    struct rawMaterialSupplier {\r\n        address addr;\r\n        uint256 id; //supplier id\r\n        string name; //Name of the raw material supplier\r\n        string place; //Place the raw material supplier is based in\r\n    }\r\n\r\n    //To store all the raw material suppliers on the blockchain\r\n    mapping(uint256 => rawMaterialSupplier) public RMS;\r\n\r\n    //To store information about manufacturer\r\n    struct manufacturer {\r\n        address addr;\r\n        uint256 id; //manufacturer id\r\n        string name; //Name of the manufacturer\r\n        string place; //Place the manufacturer is based in\r\n    }\r\n\r\n    //To store all the manufacturers on the blockchain\r\n    mapping(uint256 => manufacturer) public MAN;\r\n\r\n    //To store information about distributor\r\n    struct distributor {\r\n        address addr;\r\n        uint256 id; //distributor id\r\n        string name; //Name of the distributor\r\n        string place; //Place the distributor is based in\r\n    }\r\n\r\n    //To store all the distributors on the blockchain\r\n    mapping(uint256 => distributor) public DIS;\r\n\r\n    //To store information about retailer\r\n    struct retailer {\r\n        address addr;\r\n        uint256 id; //retailer id\r\n        string name; //Name of the retailer\r\n        string place; //Place the retailer is based in\r\n    }\r\n\r\n    //To store all the retailers on the blockchain\r\n    mapping(uint256 => retailer) public RET;\r\n\r\n    //To add raw material suppliers. Only contract owner can add a new raw material supplier\r\n    function addRMS(\r\n        address _address,\r\n        string memory _name,\r\n        string memory _place\r\n    ) public onlyByOwner() {\r\n        rmsCtr++;\r\n        RMS[rmsCtr] = rawMaterialSupplier(_address, rmsCtr, _name, _place);\r\n    }\r\n\r\n    //To add manufacturer. Only contract owner can add a new manufacturer\r\n    function addManufacturer(\r\n        address _address,\r\n        string memory _name,\r\n        string memory _place\r\n    ) public onlyByOwner() {\r\n        manCtr++;\r\n        MAN[manCtr] = manufacturer(_address, manCtr, _name, _place);\r\n    }\r\n\r\n    //To add distributor. Only contract owner can add a new distributor\r\n    function addDistributor(\r\n        address _address,\r\n        string memory _name,\r\n        string memory _place\r\n    ) public onlyByOwner() {\r\n        disCtr++;\r\n        DIS[disCtr] = distributor(_address, disCtr, _name, _place);\r\n    }\r\n\r\n    //To add retailer. Only contract owner can add a new retailer\r\n    function addRetailer(\r\n        address _address,\r\n        string memory _name,\r\n        string memory _place\r\n    ) public onlyByOwner() {\r\n        retCtr++;\r\n        RET[retCtr] = retailer(_address, retCtr, _name, _place);\r\n    }\r\n\r\n    //To supply raw materials from RMS supplier to the manufacturer\r\n    function RMSsupply(uint256 _medicineID) public {\r\n        require(_medicineID > 0 && _medicineID <= medicineCtr);\r\n        uint256 _id = findRMS(msg.sender);\r\n        require(_id > 0);\r\n        require(MedicineStock[_medicineID].stage == STAGE.Init);\r\n        MedicineStock[_medicineID].RMSid = _id;\r\n        MedicineStock[_medicineID].stage = STAGE.RawMaterialSupply;\r\n    }\r\n\r\n    //To check if RMS is available in the blockchain\r\n    function findRMS(address _address) private view returns (uint256) {\r\n        require(rmsCtr > 0);\r\n        for (uint256 i = 1; i <= rmsCtr; i++) {\r\n            if (RMS[i].addr == _address) return RMS[i].id;\r\n        }\r\n        return 0;\r\n    }\r\n\r\n    //To manufacture medicine\r\n    function Manufacturing(uint256 _medicineID) public {\r\n        require(_medicineID > 0 && _medicineID <= medicineCtr);\r\n        uint256 _id = findMAN(msg.sender);\r\n        require(_id > 0);\r\n        require(MedicineStock[_medicineID].stage == STAGE.RawMaterialSupply);\r\n        MedicineStock[_medicineID].MANid = _id;\r\n        MedicineStock[_medicineID].stage = STAGE.Manufacture;\r\n    }\r\n\r\n    //To check if Manufacturer is available in the blockchain\r\n    function findMAN(address _address) private view returns (uint256) {\r\n        require(manCtr > 0);\r\n        for (uint256 i = 1; i <= manCtr; i++) {\r\n            if (MAN[i].addr == _address) return MAN[i].id;\r\n        }\r\n        return 0;\r\n    }\r\n\r\n    //To supply medicines from Manufacturer to distributor\r\n    function Distribute(uint256 _medicineID) public {\r\n        require(_medicineID > 0 && _medicineID <= medicineCtr);\r\n        uint256 _id = findDIS(msg.sender);\r\n        require(_id > 0);\r\n        require(MedicineStock[_medicineID].stage == STAGE.Manufacture);\r\n        MedicineStock[_medicineID].DISid = _id;\r\n        MedicineStock[_medicineID].stage = STAGE.Distribution;\r\n    }\r\n\r\n    //To check if distributor is available in the blockchain\r\n    function findDIS(address _address) private view returns (uint256) {\r\n        require(disCtr > 0);\r\n        for (uint256 i = 1; i <= disCtr; i++) {\r\n            if (DIS[i].addr == _address) return DIS[i].id;\r\n        }\r\n        return 0;\r\n    }\r\n\r\n    //To supply medicines from distributor to retailer\r\n    function Retail(uint256 _medicineID) public {\r\n        require(_medicineID > 0 && _medicineID <= medicineCtr);\r\n        uint256 _id = findRET(msg.sender);\r\n        require(_id > 0);\r\n        require(MedicineStock[_medicineID].stage == STAGE.Distribution);\r\n        MedicineStock[_medicineID].RETid = _id;\r\n        MedicineStock[_medicineID].stage = STAGE.Retail;\r\n    }\r\n\r\n    //To check if retailer is available in the blockchain\r\n    function findRET(address _address) private view returns (uint256) {\r\n        require(retCtr > 0);\r\n        for (uint256 i = 1; i <= retCtr; i++) {\r\n            if (RET[i].addr == _address) return RET[i].id;\r\n        }\r\n        return 0;\r\n    }\r\n\r\n    //To sell medicines from retailer to consumer\r\n    function sold(uint256 _medicineID) public {\r\n        require(_medicineID > 0 && _medicineID <= medicineCtr);\r\n        uint256 _id = findRET(msg.sender);\r\n        require(_id > 0);\r\n        require(_id == MedicineStock[_medicineID].RETid); //Only correct retailer can mark medicine as sold\r\n        require(MedicineStock[_medicineID].stage == STAGE.Retail);\r\n        MedicineStock[_medicineID].stage = STAGE.sold;\r\n    }\r\n\r\n    // To add new medicines to the stock\r\n    function addMedicine(string memory _name, string memory _description)\r\n        public\r\n        onlyByOwner()\r\n    {\r\n        require((rmsCtr > 0) && (manCtr > 0) && (disCtr > 0) && (retCtr > 0));\r\n        medicineCtr++;\r\n        MedicineStock[medicineCtr] = medicine(\r\n            medicineCtr,\r\n            _name,\r\n            _description,\r\n            0,\r\n            0,\r\n            0,\r\n            0,\r\n            STAGE.Init\r\n        );\r\n    }\r\n}\r\n",
  "sourcePath": "D:\\SupplyChainDev\\trufflerscf\\contracts\\SupplyChainDemo.sol",
  "compiler": {
    "name": "solc",
    "version": "0.8.19+commit.7dd6d404.Emscripten.clang"
  },
  "schemaVersion": "3.4.16",
  "updatedAt": "2024-02-27T08:12:39.973Z",
  "devdoc": {
    "kind": "dev",
    "methods": {},
    "version": 1
  },
  "userdoc": {
    "kind": "user",
    "methods": {},
    "version": 1
  }
}