{
  "contractName": "SupplyChainRSCF",
  "abi": [
    {
      "anonymous": false,
      "inputs": [
        {
          "indexed": false,
          "internalType": "string",
          "name": "info",
          "type": "string"
        }
      ],
      "name": "Info",
      "type": "event"
    },
    {
      "anonymous": false,
      "inputs": [
        {
          "indexed": false,
          "internalType": "string",
          "name": "productId",
          "type": "string"
        },
        {
          "indexed": false,
          "internalType": "address",
          "name": "owner",
          "type": "address"
        },
        {
          "indexed": false,
          "internalType": "string",
          "name": "productName",
          "type": "string"
        },
        {
          "indexed": false,
          "internalType": "string",
          "name": "manufacturer",
          "type": "string"
        },
        {
          "indexed": false,
          "internalType": "string",
          "name": "supplier",
          "type": "string"
        },
        {
          "indexed": false,
          "internalType": "string",
          "name": "currentLocation",
          "type": "string"
        },
        {
          "indexed": false,
          "internalType": "uint256",
          "name": "date",
          "type": "uint256"
        }
      ],
      "name": "ProductAdded",
      "type": "event"
    },
    {
      "anonymous": false,
      "inputs": [
        {
          "indexed": false,
          "internalType": "string",
          "name": "productId",
          "type": "string"
        },
        {
          "indexed": false,
          "internalType": "string",
          "name": "currentLocation",
          "type": "string"
        }
      ],
      "name": "locationChanged",
      "type": "event"
    },
    {
      "inputs": [
        {
          "internalType": "string",
          "name": "",
          "type": "string"
        }
      ],
      "name": "ProductMap",
      "outputs": [
        {
          "internalType": "string",
          "name": "productId",
          "type": "string"
        },
        {
          "internalType": "address",
          "name": "owner",
          "type": "address"
        },
        {
          "internalType": "string",
          "name": "productName",
          "type": "string"
        },
        {
          "internalType": "string",
          "name": "manufacturer",
          "type": "string"
        },
        {
          "internalType": "string",
          "name": "supplier",
          "type": "string"
        },
        {
          "internalType": "string",
          "name": "currentLocation",
          "type": "string"
        },
        {
          "internalType": "uint256",
          "name": "date",
          "type": "uint256"
        }
      ],
      "stateMutability": "view",
      "type": "function"
    },
    {
      "inputs": [
        {
          "internalType": "uint256",
          "name": "",
          "type": "uint256"
        }
      ],
      "name": "Products",
      "outputs": [
        {
          "internalType": "string",
          "name": "productId",
          "type": "string"
        },
        {
          "internalType": "address",
          "name": "owner",
          "type": "address"
        },
        {
          "internalType": "string",
          "name": "productName",
          "type": "string"
        },
        {
          "internalType": "string",
          "name": "manufacturer",
          "type": "string"
        },
        {
          "internalType": "string",
          "name": "supplier",
          "type": "string"
        },
        {
          "internalType": "string",
          "name": "currentLocation",
          "type": "string"
        },
        {
          "internalType": "uint256",
          "name": "date",
          "type": "uint256"
        }
      ],
      "stateMutability": "view",
      "type": "function"
    },
    {
      "inputs": [
        {
          "internalType": "string",
          "name": "",
          "type": "string"
        }
      ],
      "name": "productAdded",
      "outputs": [
        {
          "internalType": "bool",
          "name": "",
          "type": "bool"
        }
      ],
      "stateMutability": "view",
      "type": "function"
    },
    {
      "inputs": [],
      "name": "productCount",
      "outputs": [
        {
          "internalType": "uint256",
          "name": "",
          "type": "uint256"
        }
      ],
      "stateMutability": "view",
      "type": "function"
    },
    {
      "inputs": [],
      "name": "productOutput",
      "outputs": [
        {
          "internalType": "string",
          "name": "",
          "type": "string"
        }
      ],
      "stateMutability": "view",
      "type": "function"
    },
    {
      "inputs": [],
      "name": "proOutput",
      "outputs": [
        {
          "internalType": "string",
          "name": "",
          "type": "string"
        }
      ],
      "stateMutability": "view",
      "type": "function"
    },
    {
      "inputs": [
        {
          "internalType": "string",
          "name": "_productId",
          "type": "string"
        },
        {
          "internalType": "string",
          "name": "_productName",
          "type": "string"
        },
        {
          "internalType": "string",
          "name": "_manufacturer",
          "type": "string"
        },
        {
          "internalType": "string",
          "name": "_supplier",
          "type": "string"
        },
        {
          "internalType": "string",
          "name": "_currentLocation",
          "type": "string"
        }
      ],
      "name": "addProduct",
      "outputs": [
        {
          "internalType": "bool",
          "name": "",
          "type": "bool"
        }
      ],
      "stateMutability": "nonpayable",
      "type": "function"
    },
    {
      "inputs": [],
      "name": "getProducts",
      "outputs": [
        {
          "components": [
            {
              "internalType": "string",
              "name": "productId",
              "type": "string"
            },
            {
              "internalType": "address",
              "name": "owner",
              "type": "address"
            },
            {
              "internalType": "string",
              "name": "productName",
              "type": "string"
            },
            {
              "internalType": "string",
              "name": "manufacturer",
              "type": "string"
            },
            {
              "internalType": "string",
              "name": "supplier",
              "type": "string"
            },
            {
              "internalType": "string",
              "name": "currentLocation",
              "type": "string"
            },
            {
              "internalType": "uint256",
              "name": "date",
              "type": "uint256"
            }
          ],
          "internalType": "struct SupplyChainRSCF.Product[]",
          "name": "",
          "type": "tuple[]"
        }
      ],
      "stateMutability": "view",
      "type": "function"
    },
    {
      "inputs": [
        {
          "internalType": "string",
          "name": "_location",
          "type": "string"
        },
        {
          "internalType": "string",
          "name": "_productId",
          "type": "string"
        },
        {
          "internalType": "address",
          "name": "_new_owner",
          "type": "address"
        }
      ],
      "name": "changeLocation",
      "outputs": [],
      "stateMutability": "nonpayable",
      "type": "function"
    },
    {
      "inputs": [
        {
          "internalType": "string",
          "name": "_productId",
          "type": "string"
        }
      ],
      "name": "fetchProductInfo",
      "outputs": [
        {
          "internalType": "string",
          "name": "",
          "type": "string"
        }
      ],
      "stateMutability": "view",
      "type": "function"
    },
    {
      "inputs": [
        {
          "internalType": "string",
          "name": "_producId",
          "type": "string"
        }
      ],
      "name": "fetchAddress",
      "outputs": [
        {
          "internalType": "address",
          "name": "",
          "type": "address"
        }
      ],
      "stateMutability": "view",
      "type": "function"
    },
    {
      "inputs": [
        {
          "internalType": "string",
          "name": "_producId",
          "type": "string"
        }
      ],
      "name": "fetchAllLocation",
      "outputs": [
        {
          "internalType": "string[15]",
          "name": "",
          "type": "string[15]"
        }
      ],
      "stateMutability": "view",
      "type": "function"
    },
    {
      "inputs": [
        {
          "internalType": "string",
          "name": "s1",
          "type": "string"
        },
        {
          "internalType": "string",
          "name": "s2",
          "type": "string"
        }
      ],
      "name": "compareStringValue",
      "outputs": [
        {
          "internalType": "bool",
          "name": "",
          "type": "bool"
        }
      ],
      "stateMutability": "pure",
      "type": "function"
    }
  ],
  "bytecode": "0x60806040526000805534801561001457600080fd5b506129b8806100246000396000f3fe608060405234801561001057600080fd5b50600436106100cf5760003560e01c8063accac5681161008c578063c29b2f2011610066578063c29b2f2014610252578063dba3f6aa14610270578063e0f6ef87146102a6578063ef6da8d4146102c4576100cf565b8063accac568146101c2578063ae56ef08146101f2578063b9a7cf7e14610222576100cf565b80633768539b146100d45780633b3822d3146100f25780635de1088f146101225780636dd196a81461014057806370e80e571461015c578063847f12091461018c575b600080fd5b6100dc6102f4565b6040516100e99190611a9e565b60405180910390f35b61010c60048036038101906101079190611c09565b610386565b6040516101199190611a9e565b60405180910390f35b61012a610670565b6040516101379190611a9e565b60405180910390f35b61015a60048036038101906101559190611cb0565b6106fe565b005b61017660048036038101906101719190611c09565b61088f565b6040516101839190611d56565b60405180910390f35b6101a660048036038101906101a19190611c09565b6108c5565b6040516101b99796959493929190611d99565b60405180910390f35b6101dc60048036038101906101d79190611c09565b610be5565b6040516101e99190611f2b565b60405180910390f35b61020c60048036038101906102079190611f4d565b610d1b565b6040516102199190611d56565b60405180910390f35b61023c60048036038101906102379190611c09565b610d41565b6040516102499190611fc5565b60405180910390f35b61025a610d91565b6040516102679190612178565b60405180910390f35b61028a600480360381019061028591906121c6565b61112a565b60405161029d9796959493929190611d99565b60405180910390f35b6102ae611444565b6040516102bb91906121f3565b60405180910390f35b6102de60048036038101906102d9919061220e565b61144a565b6040516102eb9190611d56565b60405180910390f35b60606005805461030390612344565b80601f016020809104026020016040519081016040528092919081815260200182805461032f90612344565b801561037c5780601f106103515761010080835404028352916020019161037c565b820191906000526020600020905b81548152906001019060200180831161035f57829003601f168201915b5050505050905090565b606060006106658360018560405161039e91906123b1565b908152602001604051809103902060020180546103ba90612344565b80601f01602080910402602001604051908101604052809291908181526020018280546103e690612344565b80156104335780601f1061040857610100808354040283529160200191610433565b820191906000526020600020905b81548152906001019060200180831161041657829003601f168201915b505050505060018660405161044891906123b1565b9081526020016040518091039020600301805461046490612344565b80601f016020809104026020016040519081016040528092919081815260200182805461049090612344565b80156104dd5780601f106104b2576101008083540402835291602001916104dd565b820191906000526020600020905b8154815290600101906020018083116104c057829003601f168201915b50505050506001876040516104f291906123b1565b9081526020016040518091039020600401805461050e90612344565b80601f016020809104026020016040519081016040528092919081815260200182805461053a90612344565b80156105875780601f1061055c57610100808354040283529160200191610587565b820191906000526020600020905b81548152906001019060200180831161056a57829003601f168201915b505050505060018860405161059c91906123b1565b908152602001604051809103902060050180546105b890612344565b80601f01602080910402602001604051908101604052809291908181526020018280546105e490612344565b80156106315780601f1061060657610100808354040283529160200191610631565b820191906000526020600020905b81548152906001019060200180831161061457829003601f168201915b505050505061066060018a60405161064991906123b1565b9081526020016040518091039020600601546117d3565b61195b565b905080915050919050565b6005805461067d90612344565b80601f01602080910402602001604051908101604052809291908181526020018280546106a990612344565b80156106f65780601f106106cb576101008083540402835291602001916106f6565b820191906000526020600020905b8154815290600101906020018083116106d957829003601f168201915b505050505081565b8160018160405161070f91906123b1565b908152602001604051809103902060010160009054906101000a900473ffffffffffffffffffffffffffffffffffffffff1673ffffffffffffffffffffffffffffffffffffffff163373ffffffffffffffffffffffffffffffffffffffff161461077857600080fd5b600060018460405161078a91906123b1565b90815260200160405180910390209050600115156002856040516107ae91906123b1565b908152602001604051809103902060009054906101000a900460ff1615151461080c576040517f08c379a000000000000000000000000000000000000000000000000000000000815260040161080390612414565b60405180910390fd5b828160010160006101000a81548173ffffffffffffffffffffffffffffffffffffffff021916908373ffffffffffffffffffffffffffffffffffffffff1602179055507f0664a78d12931d4ab35359955b16038d70650f4d3fc215fd78a89baaeab005918486604051610880929190612434565b60405180910390a15050505050565b6002818051602081018201805184825260208301602085012081835280955050505050506000915054906101000a900460ff1681565b6001818051602081018201805184825260208301602085012081835280955050505050506000915090508060000180546108fe90612344565b80601f016020809104026020016040519081016040528092919081815260200182805461092a90612344565b80156109775780601f1061094c57610100808354040283529160200191610977565b820191906000526020600020905b81548152906001019060200180831161095a57829003601f168201915b5050505050908060010160009054906101000a900473ffffffffffffffffffffffffffffffffffffffff16908060020180546109b290612344565b80601f01602080910402602001604051908101604052809291908181526020018280546109de90612344565b8015610a2b5780601f10610a0057610100808354040283529160200191610a2b565b820191906000526020600020905b815481529060010190602001808311610a0e57829003601f168201915b505050505090806003018054610a4090612344565b80601f0160208091040260200160405190810160405280929190818152602001828054610a6c90612344565b8015610ab95780601f10610a8e57610100808354040283529160200191610ab9565b820191906000526020600020905b815481529060010190602001808311610a9c57829003601f168201915b505050505090806004018054610ace90612344565b80601f0160208091040260200160405190810160405280929190818152602001828054610afa90612344565b8015610b475780601f10610b1c57610100808354040283529160200191610b47565b820191906000526020600020905b815481529060010190602001808311610b2a57829003601f168201915b505050505090806005018054610b5c90612344565b80601f0160208091040260200160405190810160405280929190818152602001828054610b8890612344565b8015610bd55780601f10610baa57610100808354040283529160200191610bd5565b820191906000526020600020905b815481529060010190602001808311610bb857829003601f168201915b5050505050908060060154905087565b610bed611993565b610bf5611993565b60005b600484604051610c0891906123b1565b9081526020016040518091039020805490508111610d1157600484604051610c3091906123b1565b90815260200160405180910390208181548110610c5057610c4f61246b565b5b906000526020600020018054610c6590612344565b80601f0160208091040260200160405190810160405280929190818152602001828054610c9190612344565b8015610cde5780601f10610cb357610100808354040283529160200191610cde565b820191906000526020600020905b815481529060010190602001808311610cc157829003601f168201915b50505050508282600f8110610cf657610cf561246b565b5b60200201819052508080610d09906124c9565b915050610bf8565b5080915050919050565b600080839050600083905080805190602001208280519060200120149250505092915050565b600080600183604051610d5491906123b1565b908152602001604051809103902060010160009054906101000a900473ffffffffffffffffffffffffffffffffffffffff16905080915050919050565b60606003805480602002602001604051908101604052809291908181526020016000905b8282101561112157838290600052602060002090600702016040518060e0016040529081600082018054610de890612344565b80601f0160208091040260200160405190810160405280929190818152602001828054610e1490612344565b8015610e615780601f10610e3657610100808354040283529160200191610e61565b820191906000526020600020905b815481529060010190602001808311610e4457829003601f168201915b505050505081526020016001820160009054906101000a900473ffffffffffffffffffffffffffffffffffffffff1673ffffffffffffffffffffffffffffffffffffffff1673ffffffffffffffffffffffffffffffffffffffff168152602001600282018054610ed090612344565b80601f0160208091040260200160405190810160405280929190818152602001828054610efc90612344565b8015610f495780601f10610f1e57610100808354040283529160200191610f49565b820191906000526020600020905b815481529060010190602001808311610f2c57829003601f168201915b50505050508152602001600382018054610f6290612344565b80601f0160208091040260200160405190810160405280929190818152602001828054610f8e90612344565b8015610fdb5780601f10610fb057610100808354040283529160200191610fdb565b820191906000526020600020905b815481529060010190602001808311610fbe57829003601f168201915b50505050508152602001600482018054610ff490612344565b80601f016020809104026020016040519081016040528092919081815260200182805461102090612344565b801561106d5780601f106110425761010080835404028352916020019161106d565b820191906000526020600020905b81548152906001019060200180831161105057829003601f168201915b5050505050815260200160058201805461108690612344565b80601f01602080910402602001604051908101604052809291908181526020018280546110b290612344565b80156110ff5780601f106110d4576101008083540402835291602001916110ff565b820191906000526020600020905b8154815290600101906020018083116110e257829003601f168201915b5050505050815260200160068201548152505081526020019060010190610db5565b50505050905090565b6003818154811061113a57600080fd5b906000526020600020906007020160009150905080600001805461115d90612344565b80601f016020809104026020016040519081016040528092919081815260200182805461118990612344565b80156111d65780601f106111ab576101008083540402835291602001916111d6565b820191906000526020600020905b8154815290600101906020018083116111b957829003601f168201915b5050505050908060010160009054906101000a900473ffffffffffffffffffffffffffffffffffffffff169080600201805461121190612344565b80601f016020809104026020016040519081016040528092919081815260200182805461123d90612344565b801561128a5780601f1061125f5761010080835404028352916020019161128a565b820191906000526020600020905b81548152906001019060200180831161126d57829003601f168201915b50505050509080600301805461129f90612344565b80601f01602080910402602001604051908101604052809291908181526020018280546112cb90612344565b80156113185780601f106112ed57610100808354040283529160200191611318565b820191906000526020600020905b8154815290600101906020018083116112fb57829003601f168201915b50505050509080600401805461132d90612344565b80601f016020809104026020016040519081016040528092919081815260200182805461135990612344565b80156113a65780601f1061137b576101008083540402835291602001916113a6565b820191906000526020600020905b81548152906001019060200180831161138957829003601f168201915b5050505050908060050180546113bb90612344565b80601f01602080910402602001604051908101604052809291908181526020018280546113e790612344565b80156114345780601f1061140957610100808354040283529160200191611434565b820191906000526020600020905b81548152906001019060200180831161141757829003601f168201915b5050505050908060060154905087565b60005481565b60008085511161145957600080fd5b60008081548092919061146b906124c9565b91905055506114786119bb565b86816000018190525033816020019073ffffffffffffffffffffffffffffffffffffffff16908173ffffffffffffffffffffffffffffffffffffffff1681525050858160400181905250838160800181905250848160600181905250828160a00181905250428160c001818152505060016002886040516114f991906123b1565b908152602001604051809103902060006101000a81548160ff0219169083151502179055508060018860405161152f91906123b1565b9081526020016040518091039020600082015181600001908161155291906126bd565b5060208201518160010160006101000a81548173ffffffffffffffffffffffffffffffffffffffff021916908373ffffffffffffffffffffffffffffffffffffffff16021790555060408201518160020190816115af91906126bd565b5060608201518160030190816115c591906126bd565b5060808201518160040190816115db91906126bd565b5060a08201518160050190816115f191906126bd565b5060c082015181600601559050506003819080600181540180825580915050600190039060005260206000209060070201600090919091909150600082015181600001908161164091906126bd565b5060208201518160010160006101000a81548173ffffffffffffffffffffffffffffffffffffffff021916908373ffffffffffffffffffffffffffffffffffffffff160217905550604082015181600201908161169d91906126bd565b5060608201518160030190816116b391906126bd565b5060808201518160040190816116c991906126bd565b5060a08201518160050190816116df91906126bd565b5060c0820151816006015550506004876040516116fc91906123b1565b90815260200160405180910390208390806001815401808255809150506001900390600052602060002001600090919091909150908161173c91906126bd565b506040518060400160405280601a81526020017f50726f64756374204164646564205375636365737366756c6c790000000000008152506005908161178191906126bd565b507fda7dc0a9fd3ec06c96dcfe27138613dd3f540d76d3fc300e379f9982c241010c873388888888426040516117bd9796959493929190611d99565b60405180910390a1600191505095945050505050565b60606000820361181a576040518060400160405280600181526020017f30000000000000000000000000000000000000000000000000000000000000008152509050611956565b600082905060005b6000821461184c578080611835906124c9565b915050600a8261184591906127be565b9150611822565b60008167ffffffffffffffff81111561186857611867611ade565b5b6040519080825280601f01601f19166020018201604052801561189a5781602001600182028036833780820191505090505b50905060008290505b6000861461194e576001816118b891906127ef565b90506000600a80886118ca91906127be565b6118d49190612823565b876118df91906127ef565b60306118eb9190612872565b905060008160f81b9050808484815181106119095761190861246b565b5b60200101907effffffffffffffffffffffffffffffffffffffffffffffffffffffffffffff1916908160001a905350600a8861194591906127be565b975050506118a3565b819450505050505b919050565b6060868686868686604051602001611978969594939291906128f3565b60405160208183030381529060405290509695505050505050565b604051806101e00160405280600f905b60608152602001906001900390816119a35790505090565b6040518060e0016040528060608152602001600073ffffffffffffffffffffffffffffffffffffffff16815260200160608152602001606081526020016060815260200160608152602001600081525090565b600081519050919050565b600082825260208201905092915050565b60005b83811015611a48578082015181840152602081019050611a2d565b60008484015250505050565b6000601f19601f8301169050919050565b6000611a7082611a0e565b611a7a8185611a19565b9350611a8a818560208601611a2a565b611a9381611a54565b840191505092915050565b60006020820190508181036000830152611ab88184611a65565b905092915050565b6000604051905090565b600080fd5b600080fd5b600080fd5b600080fd5b7f4e487b7100000000000000000000000000000000000000000000000000000000600052604160045260246000fd5b611b1682611a54565b810181811067ffffffffffffffff82111715611b3557611b34611ade565b5b80604052505050565b6000611b48611ac0565b9050611b548282611b0d565b919050565b600067ffffffffffffffff821115611b7457611b73611ade565b5b611b7d82611a54565b9050602081019050919050565b82818337600083830152505050565b6000611bac611ba784611b59565b611b3e565b905082815260208101848484011115611bc857611bc7611ad9565b5b611bd3848285611b8a565b509392505050565b600082601f830112611bf057611bef611ad4565b5b8135611c00848260208601611b99565b91505092915050565b600060208284031215611c1f57611c1e611aca565b5b600082013567ffffffffffffffff811115611c3d57611c3c611acf565b5b611c4984828501611bdb565b91505092915050565b600073ffffffffffffffffffffffffffffffffffffffff82169050919050565b6000611c7d82611c52565b9050919050565b611c8d81611c72565b8114611c9857600080fd5b50565b600081359050611caa81611c84565b92915050565b600080600060608486031215611cc957611cc8611aca565b5b600084013567ffffffffffffffff811115611ce757611ce6611acf565b5b611cf386828701611bdb565b935050602084013567ffffffffffffffff811115611d1457611d13611acf565b5b611d2086828701611bdb565b9250506040611d3186828701611c9b565b9150509250925092565b60008115159050919050565b611d5081611d3b565b82525050565b6000602082019050611d6b6000830184611d47565b92915050565b611d7a81611c72565b82525050565b6000819050919050565b611d9381611d80565b82525050565b600060e0820190508181036000830152611db3818a611a65565b9050611dc26020830189611d71565b8181036040830152611dd48188611a65565b90508181036060830152611de88187611a65565b90508181036080830152611dfc8186611a65565b905081810360a0830152611e108185611a65565b9050611e1f60c0830184611d8a565b98975050505050505050565b6000600f9050919050565b600081905092915050565b6000819050919050565b600082825260208201905092915050565b6000611e6782611a0e565b611e718185611e4b565b9350611e81818560208601611a2a565b611e8a81611a54565b840191505092915050565b6000611ea18383611e5c565b905092915050565b6000602082019050919050565b6000611ec182611e2b565b611ecb8185611e36565b935083602082028501611edd85611e41565b8060005b85811015611f195784840389528151611efa8582611e95565b9450611f0583611ea9565b925060208a01995050600181019050611ee1565b50829750879550505050505092915050565b60006020820190508181036000830152611f458184611eb6565b905092915050565b60008060408385031215611f6457611f63611aca565b5b600083013567ffffffffffffffff811115611f8257611f81611acf565b5b611f8e85828601611bdb565b925050602083013567ffffffffffffffff811115611faf57611fae611acf565b5b611fbb85828601611bdb565b9150509250929050565b6000602082019050611fda6000830184611d71565b92915050565b600081519050919050565b600082825260208201905092915050565b6000819050602082019050919050565b61201581611c72565b82525050565b61202481611d80565b82525050565b600060e08301600083015184820360008601526120478282611e5c565b915050602083015161205c602086018261200c565b50604083015184820360408601526120748282611e5c565b9150506060830151848203606086015261208e8282611e5c565b915050608083015184820360808601526120a88282611e5c565b91505060a083015184820360a08601526120c28282611e5c565b91505060c08301516120d760c086018261201b565b508091505092915050565b60006120ee838361202a565b905092915050565b6000602082019050919050565b600061210e82611fe0565b6121188185611feb565b93508360208202850161212a85611ffc565b8060005b85811015612166578484038952815161214785826120e2565b9450612152836120f6565b925060208a0199505060018101905061212e565b50829750879550505050505092915050565b600060208201905081810360008301526121928184612103565b905092915050565b6121a381611d80565b81146121ae57600080fd5b50565b6000813590506121c08161219a565b92915050565b6000602082840312156121dc576121db611aca565b5b60006121ea848285016121b1565b91505092915050565b60006020820190506122086000830184611d8a565b92915050565b600080600080600060a0868803121561222a57612229611aca565b5b600086013567ffffffffffffffff81111561224857612247611acf565b5b61225488828901611bdb565b955050602086013567ffffffffffffffff81111561227557612274611acf565b5b61228188828901611bdb565b945050604086013567ffffffffffffffff8111156122a2576122a1611acf565b5b6122ae88828901611bdb565b935050606086013567ffffffffffffffff8111156122cf576122ce611acf565b5b6122db88828901611bdb565b925050608086013567ffffffffffffffff8111156122fc576122fb611acf565b5b61230888828901611bdb565b9150509295509295909350565b7f4e487b7100000000000000000000000000000000000000000000000000000000600052602260045260246000fd5b6000600282049050600182168061235c57607f821691505b60208210810361236f5761236e612315565b5b50919050565b600081905092915050565b600061238b82611a0e565b6123958185612375565b93506123a5818560208601611a2a565b80840191505092915050565b60006123bd8284612380565b915081905092915050565b7f546869732070726f6475637420646f6573206e6f742065786973740000000000600082015250565b60006123fe601b83611a19565b9150612409826123c8565b602082019050919050565b6000602082019050818103600083015261242d816123f1565b9050919050565b6000604082019050818103600083015261244e8185611a65565b905081810360208301526124628184611a65565b90509392505050565b7f4e487b7100000000000000000000000000000000000000000000000000000000600052603260045260246000fd5b7f4e487b7100000000000000000000000000000000000000000000000000000000600052601160045260246000fd5b60006124d482611d80565b91507fffffffffffffffffffffffffffffffffffffffffffffffffffffffffffffffff82036125065761250561249a565b5b600182019050919050565b60008190508160005260206000209050919050565b60006020601f8301049050919050565b600082821b905092915050565b6000600883026125737fffffffffffffffffffffffffffffffffffffffffffffffffffffffffffffffff82612536565b61257d8683612536565b95508019841693508086168417925050509392505050565b6000819050919050565b60006125ba6125b56125b084611d80565b612595565b611d80565b9050919050565b6000819050919050565b6125d48361259f565b6125e86125e0826125c1565b848454612543565b825550505050565b600090565b6125fd6125f0565b6126088184846125cb565b505050565b5b8181101561262c576126216000826125f5565b60018101905061260e565b5050565b601f8211156126715761264281612511565b61264b84612526565b8101602085101561265a578190505b61266e61266685612526565b83018261260d565b50505b505050565b600082821c905092915050565b600061269460001984600802612676565b1980831691505092915050565b60006126ad8383612683565b9150826002028217905092915050565b6126c682611a0e565b67ffffffffffffffff8111156126df576126de611ade565b5b6126e98254612344565b6126f4828285612630565b600060209050601f8311600181146127275760008415612715578287015190505b61271f85826126a1565b865550612787565b601f19841661273586612511565b60005b8281101561275d57848901518255600182019150602085019450602081019050612738565b8683101561277a5784890151612776601f891682612683565b8355505b6001600288020188555050505b505050505050565b7f4e487b7100000000000000000000000000000000000000000000000000000000600052601260045260246000fd5b60006127c982611d80565b91506127d483611d80565b9250826127e4576127e361278f565b5b828204905092915050565b60006127fa82611d80565b915061280583611d80565b925082820390508181111561281d5761281c61249a565b5b92915050565b600061282e82611d80565b915061283983611d80565b925082820261284781611d80565b9150828204841483151761285e5761285d61249a565b5b5092915050565b600060ff82169050919050565b600061287d82612865565b915061288883612865565b9250828201905060ff8111156128a1576128a061249a565b5b92915050565b7f2c00000000000000000000000000000000000000000000000000000000000000600082015250565b60006128dd600183612375565b91506128e8826128a7565b600182019050919050565b60006128ff8289612380565b915061290a826128d0565b91506129168288612380565b9150612921826128d0565b915061292d8287612380565b9150612938826128d0565b91506129448286612380565b915061294f826128d0565b915061295b8285612380565b9150612966826128d0565b91506129728284612380565b915081905097965050505050505056fea264697066735822122088775d26714ee98a400ef9526dd2137a5c7f10e71f93c8ab5175e97807489cf464736f6c63430008130033",
  "immutableReferences": {},
  "source": "// SPDX-License-Identifier: MIT\r\npragma solidity >=0.4.22 <0.9.0;\r\n\r\ncontract SupplyChainRSCF {\r\n\r\n    //utility functions\r\n    function uint2str(uint _i) internal pure returns (string memory _uintAsString) {\r\n        if (_i == 0) {\r\n            return \"0\";\r\n        }\r\n        uint j = _i;\r\n        uint len;\r\n        while (j != 0) {\r\n            len++;\r\n            j /= 10;\r\n        }\r\n        bytes memory bstr = new bytes(len);\r\n        uint k = len;\r\n        while (_i != 0) {\r\n            k = k-1;\r\n            uint8 temp = (48 + uint8(_i - _i / 10 * 10));\r\n            bytes1 b1 = bytes1(temp);\r\n            bstr[k] = b1;\r\n            _i /= 10;\r\n        }\r\n        return string(bstr);\r\n    }\r\n\r\n    function append(string memory a, string memory b, string memory c, string memory d, string memory e, string memory f) internal pure returns (string memory) {\r\n        return string(abi.encodePacked(a, ',', b, ',', c, ',', d, ',', e, ',', f));\r\n    }\r\n\r\n    uint256 public productCount =0;\r\n   \r\n    //mapping: key--value\r\n    mapping(string => Product) public ProductMap;\r\n    mapping(string => bool) public productAdded;\r\n    Product[] public Products;\r\n    //store all locations\r\n    mapping(string => string[]) productId_locations;\r\n\r\n    struct Product {\r\n        string productId;\r\n        address owner;\r\n        string productName;\r\n        string manufacturer;\r\n        string supplier;\r\n        string currentLocation;\r\n        uint256 date;\r\n    }\r\n\r\n    //following is events\r\n    event ProductAdded( \r\n        string productId,\r\n        address owner,\r\n        string productName,\r\n        string manufacturer,\r\n        string supplier,\r\n        string currentLocation,\r\n        uint256 date\r\n    );\r\n\r\n    event locationChanged(string productId, string currentLocation);\r\n\r\n    event Info(string info);\r\n\r\n    //following is modifiers\r\n    modifier owner_only(string memory _productId){\r\n        require(msg.sender == ProductMap[_productId].owner);\r\n        _;\r\n    }\r\n\r\n    string public productOutput;\r\n    function proOutput() public view returns(string memory){\r\n      return productOutput;\r\n    }\r\n\r\n    //main methods\r\n    function addProduct(string memory _productId, string memory _productName, string memory _manufacturer, string memory _supplier, string memory _currentLocation)  public returns (bool){\r\n\r\n        require(bytes(_productName).length > 0);\r\n        productCount++;\r\n        //TypeError: Types in storage containing (nested) mappings cannot be assigned to\r\n        // Products[productCount] = Product(productCount, msg.sender, _name, 0, block.timestamp);\r\n        Product memory newProduct;\r\n        newProduct.productId= _productId;\r\n        newProduct.owner = msg.sender;\r\n        newProduct.productName = _productName;\r\n        newProduct.supplier = _supplier;\r\n        newProduct.manufacturer = _manufacturer;\r\n        newProduct.currentLocation = _currentLocation;\r\n        newProduct.date = block.timestamp;\r\n        productAdded[_productId] = true;       \r\n        ProductMap[_productId] = newProduct;\r\n        Products.push(newProduct);\r\n        productId_locations[_productId].push(_currentLocation);\r\n        productOutput = \"Product Added Successfully\";        \r\n        emit ProductAdded(_productId, msg.sender, _productName, _manufacturer, _supplier, _currentLocation, block.timestamp);\r\n        return true;\r\n    }\r\n \r\n\r\n    function getProducts() public view returns (Product[] memory) {\r\n        return Products;\r\n    }\r\n\r\n    function changeLocation(string memory _location , string memory _productId, address _new_owner) public owner_only(_productId){\r\n\r\n        //  Product storage _product = Products[_id];\r\n         Product storage _product = ProductMap[_productId];\r\n        require(productAdded[_productId] == true, \"This product does not exist\");\r\n         _product.owner = _new_owner; \r\n         emit locationChanged(_productId, _location);\r\n    }\r\n\r\n    function fetchProductInfo(string memory _productId)public view returns(string memory) {\r\n\r\n        string memory _info  = append(\r\n            _productId,\r\n            ProductMap[_productId].productName,\r\n            ProductMap[_productId].manufacturer,\r\n            ProductMap[_productId].supplier,\r\n            ProductMap[_productId].currentLocation,\r\n            uint2str(ProductMap[_productId].date));\r\n        return _info;\r\n    }\r\n\r\n     function fetchAddress(string memory _producId) public view returns (address){        \r\n        address str = ProductMap[_producId].owner;\r\n        return str;\r\n    }\r\n\r\n    function fetchAllLocation(string memory _producId) public view returns (string[15] memory){\r\n        // string memory currLocation = ProductMap[_producId].currentLocation;\r\n        string[15] memory allLocations;\r\n        for( uint i = 0; i <= productId_locations[_producId].length; i++){\r\n            allLocations[i] = productId_locations[_producId][i];\r\n        }\r\n        return allLocations;\r\n    }\r\n\r\n    function compareStringValue(string memory s1, string  memory s2) public pure returns (bool) {\r\n        bytes memory a1=bytes(s1);\r\n        bytes memory b2=bytes(s2);\r\n        return keccak256((a1)) == keccak256((b2));\r\n    }      \r\n}",
  "sourcePath": "D:\\SupplyChainDev\\trufflerscf\\contracts\\SupplyChainRSCF.sol",
  "compiler": {
    "name": "solc",
    "version": "0.8.19+commit.7dd6d404.Emscripten.clang"
  },
  "schemaVersion": "3.4.16",
  "updatedAt": "2024-02-27T08:12:40.034Z",
  "devdoc": {
    "kind": "dev",
    "methods": {},
    "version": 1
  },
  "userdoc": {
    "kind": "user",
    "methods": {},
    "version": 1
  }
}