{
  "contractName": "SupplyChainRSCF",
  "abi": [
    {
      "anonymous": false,
      "inputs": [
        {
          "indexed": false,
          "internalType": "string",
          "name": "info",
          "type": "string"
        }
      ],
      "name": "Info",
      "type": "event"
    },
    {
      "anonymous": false,
      "inputs": [
        {
          "indexed": false,
          "internalType": "uint256",
          "name": "id",
          "type": "uint256"
        },
        {
          "indexed": false,
          "internalType": "address",
          "name": "owner",
          "type": "address"
        },
        {
          "indexed": false,
          "internalType": "string",
          "name": "name",
          "type": "string"
        },
        {
          "indexed": false,
          "internalType": "string",
          "name": "manufacturer",
          "type": "string"
        },
        {
          "indexed": false,
          "internalType": "string",
          "name": "supplier",
          "type": "string"
        },
        {
          "indexed": false,
          "internalType": "uint256",
          "name": "currentLocation",
          "type": "uint256"
        },
        {
          "indexed": false,
          "internalType": "uint256",
          "name": "date",
          "type": "uint256"
        }
      ],
      "name": "ProductAdded",
      "type": "event"
    },
    {
      "anonymous": false,
      "inputs": [
        {
          "indexed": false,
          "internalType": "uint256",
          "name": "id",
          "type": "uint256"
        },
        {
          "indexed": false,
          "internalType": "string",
          "name": "currentLocation",
          "type": "string"
        }
      ],
      "name": "locationChanged",
      "type": "event"
    },
    {
      "inputs": [
        {
          "internalType": "uint256",
          "name": "",
          "type": "uint256"
        }
      ],
      "name": "ProductMap",
      "outputs": [
        {
          "internalType": "uint256",
          "name": "id",
          "type": "uint256"
        },
        {
          "internalType": "address",
          "name": "owner",
          "type": "address"
        },
        {
          "internalType": "string",
          "name": "name",
          "type": "string"
        },
        {
          "internalType": "string",
          "name": "manufacturer",
          "type": "string"
        },
        {
          "internalType": "string",
          "name": "supplier",
          "type": "string"
        },
        {
          "internalType": "uint256",
          "name": "currentLocation",
          "type": "uint256"
        },
        {
          "internalType": "uint256",
          "name": "date",
          "type": "uint256"
        }
      ],
      "stateMutability": "view",
      "type": "function"
    },
    {
      "inputs": [
        {
          "internalType": "uint256",
          "name": "",
          "type": "uint256"
        }
      ],
      "name": "Products",
      "outputs": [
        {
          "internalType": "uint256",
          "name": "id",
          "type": "uint256"
        },
        {
          "internalType": "address",
          "name": "owner",
          "type": "address"
        },
        {
          "internalType": "string",
          "name": "name",
          "type": "string"
        },
        {
          "internalType": "string",
          "name": "manufacturer",
          "type": "string"
        },
        {
          "internalType": "string",
          "name": "supplier",
          "type": "string"
        },
        {
          "internalType": "uint256",
          "name": "currentLocation",
          "type": "uint256"
        },
        {
          "internalType": "uint256",
          "name": "date",
          "type": "uint256"
        }
      ],
      "stateMutability": "view",
      "type": "function"
    },
    {
      "inputs": [
        {
          "internalType": "uint256",
          "name": "",
          "type": "uint256"
        }
      ],
      "name": "productAdded",
      "outputs": [
        {
          "internalType": "bool",
          "name": "",
          "type": "bool"
        }
      ],
      "stateMutability": "view",
      "type": "function"
    },
    {
      "inputs": [],
      "name": "productCount",
      "outputs": [
        {
          "internalType": "uint256",
          "name": "",
          "type": "uint256"
        }
      ],
      "stateMutability": "view",
      "type": "function"
    },
    {
      "inputs": [
        {
          "internalType": "uint256",
          "name": "_id",
          "type": "uint256"
        },
        {
          "internalType": "string",
          "name": "_name",
          "type": "string"
        },
        {
          "internalType": "string",
          "name": "_manufacturer",
          "type": "string"
        },
        {
          "internalType": "string",
          "name": "_supplier",
          "type": "string"
        }
      ],
      "name": "addProduct",
      "outputs": [
        {
          "internalType": "bool",
          "name": "",
          "type": "bool"
        }
      ],
      "stateMutability": "nonpayable",
      "type": "function"
    },
    {
      "inputs": [
        {
          "internalType": "string",
          "name": "_location",
          "type": "string"
        },
        {
          "internalType": "uint256",
          "name": "_id",
          "type": "uint256"
        },
        {
          "internalType": "address",
          "name": "_new_owner",
          "type": "address"
        }
      ],
      "name": "changeLocation",
      "outputs": [],
      "stateMutability": "nonpayable",
      "type": "function"
    },
    {
      "inputs": [
        {
          "internalType": "uint256",
          "name": "_id",
          "type": "uint256"
        }
      ],
      "name": "fetchInfo",
      "outputs": [
        {
          "internalType": "string",
          "name": "",
          "type": "string"
        }
      ],
      "stateMutability": "view",
      "type": "function"
    },
    {
      "inputs": [
        {
          "internalType": "uint256",
          "name": "_id",
          "type": "uint256"
        }
      ],
      "name": "fetchAddress",
      "outputs": [
        {
          "internalType": "address",
          "name": "",
          "type": "address"
        }
      ],
      "stateMutability": "view",
      "type": "function"
    },
    {
      "inputs": [
        {
          "internalType": "uint256",
          "name": "_id",
          "type": "uint256"
        }
      ],
      "name": "fetchAllLocation",
      "outputs": [
        {
          "internalType": "string[15]",
          "name": "",
          "type": "string[15]"
        }
      ],
      "stateMutability": "view",
      "type": "function"
    }
  ],
  "bytecode": "0x60806040526000805534801561001457600080fd5b50611c29806100246000396000f3fe608060405234801561001057600080fd5b50600436106100935760003560e01c8063c1393d2711610066578063c1393d271461014a578063ce83953d1461017a578063dba3f6aa146101aa578063e0f6ef87146101e0578063f6126cf3146101fe57610093565b80630a5eb46c146100985780631cfe762f146100b457806336f3b99d146100e4578063618ff2091461011a575b600080fd5b6100b260048036038101906100ad9190611105565b61022e565b005b6100ce60048036038101906100c99190611174565b6103fd565b6040516100db91906111bc565b60405180910390f35b6100fe60048036038101906100f99190611174565b61041d565b6040516101119796959493929190611274565b60405180910390f35b610134600480360381019061012f9190611174565b610617565b60405161014191906112f8565b60405180910390f35b610164600480360381019061015f9190611313565b61066b565b60405161017191906111bc565b60405180910390f35b610194600480360381019061018f9190611174565b610815565b6040516101a191906114ce565b60405180910390f35b6101c460048036038101906101bf9190611174565b610951565b6040516101d79796959493929190611274565b60405180910390f35b6101e8610b5b565b6040516101f591906114f0565b60405180910390f35b61021860048036038101906102139190611174565b610b61565b604051610225919061150b565b60405180910390f35b81600381815481106102435761024261152d565b5b906000526020600020906008020160010160009054906101000a900473ffffffffffffffffffffffffffffffffffffffff1673ffffffffffffffffffffffffffffffffffffffff163373ffffffffffffffffffffffffffffffffffffffff16146102ac57600080fd5b6000600384815481106102c2576102c161152d565b5b90600052602060002090600802019050600115156002600086815260200190815260200160002060009054906101000a900460ff16151514610339576040517f08c379a0000000000000000000000000000000000000000000000000000000008152600401610330906115a8565b60405180910390fd5b80600501600081548092919061034e906115f7565b919050555084816007016000836005015481526020019081526020016000209081610379919061184b565b50828160010160006101000a81548173ffffffffffffffffffffffffffffffffffffffff021916908373ffffffffffffffffffffffffffffffffffffffff1602179055507f136456627f0fdcbc663467816d140d084ef4efabd82daf4458bcee9b5d48652584866040516103ee92919061191d565b60405180910390a15050505050565b60026020528060005260406000206000915054906101000a900460ff1681565b60016020528060005260406000206000915090508060000154908060010160009054906101000a900473ffffffffffffffffffffffffffffffffffffffff169080600201805461046c9061166e565b80601f01602080910402602001604051908101604052809291908181526020018280546104989061166e565b80156104e55780601f106104ba576101008083540402835291602001916104e5565b820191906000526020600020905b8154815290600101906020018083116104c857829003601f168201915b5050505050908060030180546104fa9061166e565b80601f01602080910402602001604051908101604052809291908181526020018280546105269061166e565b80156105735780601f1061054857610100808354040283529160200191610573565b820191906000526020600020905b81548152906001019060200180831161055657829003601f168201915b5050505050908060040180546105889061166e565b80601f01602080910402602001604051908101604052809291908181526020018280546105b49061166e565b80156106015780601f106105d657610100808354040283529160200191610601565b820191906000526020600020905b8154815290600101906020018083116105e457829003601f168201915b5050505050908060050154908060060154905087565b6000806003838154811061062e5761062d61152d565b5b906000526020600020906008020160010160009054906101000a900473ffffffffffffffffffffffffffffffffffffffff16905080915050919050565b60008084511161067a57600080fd5b60008081548092919061068c906115f7565b9190505550600060016000805481526020019081526020016000209050858160000181905550338160010160006101000a81548173ffffffffffffffffffffffffffffffffffffffff021916908373ffffffffffffffffffffffffffffffffffffffff16021790555084816002019081610706919061184b565b5082816004019081610718919061184b565b508381600301908161072a919061184b565b50600081600501819055504281600601819055506040518060400160405280600181526020017f3000000000000000000000000000000000000000000000000000000000000000815250816007016000805481526020019081526020016000209081610796919061184b565b506001600260008054815260200190815260200160002060006101000a81548160ff0219169083151502179055507f95e7cdf1829f4ce739eb43f930e5378f303679329d3c6b843092444a586a03c886338787876000426040516108009796959493929190611988565b60405180910390a16001915050949350505050565b61081d610eef565b6000600383815481106108335761083261152d565b5b906000526020600020906008020160050154905061084f610eef565b60005b828111610946576003858154811061086d5761086c61152d565b5b90600052602060002090600802016007016000828152602001908152602001600020805461089a9061166e565b80601f01602080910402602001604051908101604052809291908181526020018280546108c69061166e565b80156109135780601f106108e857610100808354040283529160200191610913565b820191906000526020600020905b8154815290600101906020018083116108f657829003601f168201915b50505050508282600f811061092b5761092a61152d565b5b6020020181905250808061093e906115f7565b915050610852565b508092505050919050565b6003818154811061096157600080fd5b90600052602060002090600802016000915090508060000154908060010160009054906101000a900473ffffffffffffffffffffffffffffffffffffffff16908060020180546109b09061166e565b80601f01602080910402602001604051908101604052809291908181526020018280546109dc9061166e565b8015610a295780601f106109fe57610100808354040283529160200191610a29565b820191906000526020600020905b815481529060010190602001808311610a0c57829003601f168201915b505050505090806003018054610a3e9061166e565b80601f0160208091040260200160405190810160405280929190818152602001828054610a6a9061166e565b8015610ab75780601f10610a8c57610100808354040283529160200191610ab7565b820191906000526020600020905b815481529060010190602001808311610a9a57829003601f168201915b505050505090806004018054610acc9061166e565b80601f0160208091040260200160405190810160405280929190818152602001828054610af89061166e565b8015610b455780601f10610b1a57610100808354040283529160200191610b45565b820191906000526020600020905b815481529060010190602001808311610b2857829003601f168201915b5050505050908060050154908060060154905087565b60005481565b60606000610d2d60038481548110610b7c57610b7b61152d565b5b90600052602060002090600802016002018054610b989061166e565b80601f0160208091040260200160405190810160405280929190818152602001828054610bc49061166e565b8015610c115780601f10610be657610100808354040283529160200191610c11565b820191906000526020600020905b815481529060010190602001808311610bf457829003601f168201915b505050505060038581548110610c2a57610c2961152d565b5b9060005260206000209060080201600701600060038781548110610c5157610c5061152d565b5b90600052602060002090600802016005015481526020019081526020016000208054610c7c9061166e565b80601f0160208091040260200160405190810160405280929190818152602001828054610ca89061166e565b8015610cf55780601f10610cca57610100808354040283529160200191610cf5565b820191906000526020600020905b815481529060010190602001808311610cd857829003601f168201915b5050505050610d2860038781548110610d1157610d1061152d565b5b906000526020600020906008020160060154610d38565b610ec0565b905080915050919050565b606060008203610d7f576040518060400160405280600181526020017f30000000000000000000000000000000000000000000000000000000000000008152509050610ebb565b600082905060005b60008214610db1578080610d9a906115f7565b915050600a82610daa9190611a3b565b9150610d87565b60008167ffffffffffffffff811115610dcd57610dcc610f46565b5b6040519080825280601f01601f191660200182016040528015610dff5781602001600182028036833780820191505090505b50905060008290505b60008614610eb357600181610e1d9190611a6c565b90506000600a8088610e2f9190611a3b565b610e399190611aa0565b87610e449190611a6c565b6030610e509190611aef565b905060008160f81b905080848481518110610e6e57610e6d61152d565b5b60200101907effffffffffffffffffffffffffffffffffffffffffffffffffffffffffffff1916908160001a905350600a88610eaa9190611a3b565b97505050610e08565b819450505050505b919050565b6060838383604051602001610ed793929190611bac565b60405160208183030381529060405290509392505050565b604051806101e00160405280600f905b6060815260200190600190039081610eff5790505090565b6000604051905090565b600080fd5b600080fd5b600080fd5b600080fd5b6000601f19601f8301169050919050565b7f4e487b7100000000000000000000000000000000000000000000000000000000600052604160045260246000fd5b610f7e82610f35565b810181811067ffffffffffffffff82111715610f9d57610f9c610f46565b5b80604052505050565b6000610fb0610f17565b9050610fbc8282610f75565b919050565b600067ffffffffffffffff821115610fdc57610fdb610f46565b5b610fe582610f35565b9050602081019050919050565b82818337600083830152505050565b600061101461100f84610fc1565b610fa6565b9050828152602081018484840111156110305761102f610f30565b5b61103b848285610ff2565b509392505050565b600082601f83011261105857611057610f2b565b5b8135611068848260208601611001565b91505092915050565b6000819050919050565b61108481611071565b811461108f57600080fd5b50565b6000813590506110a18161107b565b92915050565b600073ffffffffffffffffffffffffffffffffffffffff82169050919050565b60006110d2826110a7565b9050919050565b6110e2816110c7565b81146110ed57600080fd5b50565b6000813590506110ff816110d9565b92915050565b60008060006060848603121561111e5761111d610f21565b5b600084013567ffffffffffffffff81111561113c5761113b610f26565b5b61114886828701611043565b935050602061115986828701611092565b925050604061116a868287016110f0565b9150509250925092565b60006020828403121561118a57611189610f21565b5b600061119884828501611092565b91505092915050565b60008115159050919050565b6111b6816111a1565b82525050565b60006020820190506111d160008301846111ad565b92915050565b6111e081611071565b82525050565b6111ef816110c7565b82525050565b600081519050919050565b600082825260208201905092915050565b60005b8381101561122f578082015181840152602081019050611214565b60008484015250505050565b6000611246826111f5565b6112508185611200565b9350611260818560208601611211565b61126981610f35565b840191505092915050565b600060e082019050611289600083018a6111d7565b61129660208301896111e6565b81810360408301526112a8818861123b565b905081810360608301526112bc818761123b565b905081810360808301526112d0818661123b565b90506112df60a08301856111d7565b6112ec60c08301846111d7565b98975050505050505050565b600060208201905061130d60008301846111e6565b92915050565b6000806000806080858703121561132d5761132c610f21565b5b600061133b87828801611092565b945050602085013567ffffffffffffffff81111561135c5761135b610f26565b5b61136887828801611043565b935050604085013567ffffffffffffffff81111561138957611388610f26565b5b61139587828801611043565b925050606085013567ffffffffffffffff8111156113b6576113b5610f26565b5b6113c287828801611043565b91505092959194509250565b6000600f9050919050565b600081905092915050565b6000819050919050565b600082825260208201905092915050565b600061140a826111f5565b61141481856113ee565b9350611424818560208601611211565b61142d81610f35565b840191505092915050565b600061144483836113ff565b905092915050565b6000602082019050919050565b6000611464826113ce565b61146e81856113d9565b935083602082028501611480856113e4565b8060005b858110156114bc578484038952815161149d8582611438565b94506114a88361144c565b925060208a01995050600181019050611484565b50829750879550505050505092915050565b600060208201905081810360008301526114e88184611459565b905092915050565b600060208201905061150560008301846111d7565b92915050565b60006020820190508181036000830152611525818461123b565b905092915050565b7f4e487b7100000000000000000000000000000000000000000000000000000000600052603260045260246000fd5b7f546869732070726f6475637420646f6573206e6f742065786973740000000000600082015250565b6000611592601b83611200565b915061159d8261155c565b602082019050919050565b600060208201905081810360008301526115c181611585565b9050919050565b7f4e487b7100000000000000000000000000000000000000000000000000000000600052601160045260246000fd5b600061160282611071565b91507fffffffffffffffffffffffffffffffffffffffffffffffffffffffffffffffff8203611634576116336115c8565b5b600182019050919050565b7f4e487b7100000000000000000000000000000000000000000000000000000000600052602260045260246000fd5b6000600282049050600182168061168657607f821691505b6020821081036116995761169861163f565b5b50919050565b60008190508160005260206000209050919050565b60006020601f8301049050919050565b600082821b905092915050565b6000600883026117017fffffffffffffffffffffffffffffffffffffffffffffffffffffffffffffffff826116c4565b61170b86836116c4565b95508019841693508086168417925050509392505050565b6000819050919050565b600061174861174361173e84611071565b611723565b611071565b9050919050565b6000819050919050565b6117628361172d565b61177661176e8261174f565b8484546116d1565b825550505050565b600090565b61178b61177e565b611796818484611759565b505050565b5b818110156117ba576117af600082611783565b60018101905061179c565b5050565b601f8211156117ff576117d08161169f565b6117d9846116b4565b810160208510156117e8578190505b6117fc6117f4856116b4565b83018261179b565b50505b505050565b600082821c905092915050565b600061182260001984600802611804565b1980831691505092915050565b600061183b8383611811565b9150826002028217905092915050565b611854826111f5565b67ffffffffffffffff81111561186d5761186c610f46565b5b611877825461166e565b6118828282856117be565b600060209050601f8311600181146118b557600084156118a3578287015190505b6118ad858261182f565b865550611915565b601f1984166118c38661169f565b60005b828110156118eb578489015182556001820191506020850194506020810190506118c6565b868310156119085784890151611904601f891682611811565b8355505b6001600288020188555050505b505050505050565b600060408201905061193260008301856111d7565b8181036020830152611944818461123b565b90509392505050565b6000819050919050565b600061197261196d6119688461194d565b611723565b611071565b9050919050565b61198281611957565b82525050565b600060e08201905061199d600083018a6111d7565b6119aa60208301896111e6565b81810360408301526119bc818861123b565b905081810360608301526119d0818761123b565b905081810360808301526119e4818661123b565b90506119f360a0830185611979565b611a0060c08301846111d7565b98975050505050505050565b7f4e487b7100000000000000000000000000000000000000000000000000000000600052601260045260246000fd5b6000611a4682611071565b9150611a5183611071565b925082611a6157611a60611a0c565b5b828204905092915050565b6000611a7782611071565b9150611a8283611071565b9250828203905081811115611a9a57611a996115c8565b5b92915050565b6000611aab82611071565b9150611ab683611071565b9250828202611ac481611071565b91508282048414831517611adb57611ada6115c8565b5b5092915050565b600060ff82169050919050565b6000611afa82611ae2565b9150611b0583611ae2565b9250828201905060ff811115611b1e57611b1d6115c8565b5b92915050565b600081905092915050565b6000611b3a826111f5565b611b448185611b24565b9350611b54818560208601611211565b80840191505092915050565b7f2c00000000000000000000000000000000000000000000000000000000000000600082015250565b6000611b96600183611b24565b9150611ba182611b60565b600182019050919050565b6000611bb88286611b2f565b9150611bc382611b89565b9150611bcf8285611b2f565b9150611bda82611b89565b9150611be68284611b2f565b915081905094935050505056fea2646970667358221220fb8f3a97618ee7ae8ca5fea0081f8973280381d729afebb95945266e3979cc2864736f6c63430008130033",
  "immutableReferences": {},
  "source": "// SPDX-License-Identifier: MIT\r\npragma experimental ABIEncoderV2;\r\npragma solidity >=0.4.22 <0.9.0;\r\n\r\ncontract SupplyChainRSCF {\r\n\r\n    //utility functions\r\n    function uint2str(uint _i) internal pure returns (string memory _uintAsString) {\r\n        if (_i == 0) {\r\n            return \"0\";\r\n        }\r\n        uint j = _i;\r\n        uint len;\r\n        while (j != 0) {\r\n            len++;\r\n            j /= 10;\r\n        }\r\n        bytes memory bstr = new bytes(len);\r\n        uint k = len;\r\n        while (_i != 0) {\r\n            k = k-1;\r\n            uint8 temp = (48 + uint8(_i - _i / 10 * 10));\r\n            bytes1 b1 = bytes1(temp);\r\n            bstr[k] = b1;\r\n            _i /= 10;\r\n        }\r\n        return string(bstr);\r\n    }\r\n    function append(string memory a, string memory b, string memory c) internal pure returns (string memory) {\r\n    return string(abi.encodePacked(a, ',', b, ',', c));\r\n}\r\n\r\n   uint256 public productCount =0;\r\n   \r\n   //mapping: key--value\r\n   mapping(uint256 => Product) public ProductMap;\r\n   mapping(uint => bool) public productAdded;\r\n   Product[] public Products;\r\n\r\n    struct Product {\r\n        uint256 id;\r\n        address owner;\r\n        string name;\r\n        string manufacturer;\r\n        string supplier;\r\n        uint256 currentLocation;\r\n        uint256 date;\r\n        mapping(uint256 => string) Locations;\r\n    }\r\n\r\n    //following is events\r\n    event ProductAdded( \r\n        uint256 id,\r\n        address owner,\r\n        string name,\r\n        string manufacturer,\r\n        string supplier,\r\n        uint currentLocation,\r\n        uint256 date\r\n    );\r\n\r\n    event locationChanged(uint256 id, string currentLocation);\r\n\r\n    event Info( string info);\r\n\r\n    //following is modifiers\r\n    modifier owner_only(uint _id){\r\n        require(msg.sender == Products[_id].owner);\r\n        _;\r\n    }\r\n\r\n    //main methods\r\n    function addProduct(uint256 _id, string memory _name, string memory _manufacturer, string memory _supplier)  public returns (bool){\r\n\r\n        require(bytes(_name).length > 0);\r\n        productCount++;\r\n        //TypeError: Types in storage containing (nested) mappings cannot be assigned to\r\n        // Products[productCount] = Product(productCount, msg.sender, _name, 0, block.timestamp);\r\n        Product storage newProduct = ProductMap[productCount];\r\n        newProduct.id= _id;\r\n        newProduct.owner = msg.sender;\r\n        newProduct.name = _name;\r\n        newProduct.supplier = _supplier;\r\n        newProduct.manufacturer = _manufacturer;\r\n        newProduct.currentLocation = 0;\r\n        newProduct.date = block.timestamp;\r\n        newProduct.Locations[productCount] = \"0\";\r\n        productAdded[productCount] = true;\r\n        emit ProductAdded(_id, msg.sender, _name, _manufacturer, _supplier,0, block.timestamp);\r\n        return true;\r\n    }\r\n\r\n    function changeLocation( string memory _location  , uint256 _id, address _new_owner) public owner_only(_id){\r\n\r\n        //  Product storage _product = Products[_id];\r\n         Product storage _product = Products[_id];\r\n        require(productAdded[_id] == true, \"This product does not exist\");\r\n         _product.currentLocation++;\r\n         _product.Locations[_product.currentLocation] = _location;\r\n         _product.owner = _new_owner;\r\n        //  Products[_id] = _product;\r\n\r\n         emit locationChanged( _id, _location);\r\n\r\n    }\r\n\r\n    function fetchInfo( uint256 _id)public view returns(string memory) {\r\n\r\n        string memory _info  = append(\r\n            Products[_id].name,\r\n            Products[_id].Locations[Products[_id].currentLocation],\r\n           uint2str(Products[_id].date));\r\n        return _info;\r\n    }\r\n\r\n     function fetchAddress( uint _id) public view returns (address){\r\n        \r\n        address str = Products[_id].owner;\r\n        return str;\r\n    }\r\n\r\n    function fetchAllLocation( uint _id) public view returns (string[15] memory){\r\n        uint cLocat = Products[_id].currentLocation;\r\n        string[15] memory temp;\r\n        for( uint i = 0 ; i <=cLocat;i++){\r\n            temp[i] = Products[_id].Locations[i];\r\n        }\r\n        return temp;\r\n    }\r\n}",
  "sourcePath": "D:\\SupplyChainDev\\trufflerscf\\contracts\\SupplyChainRSCF.sol",
  "compiler": {
    "name": "solc",
    "version": "0.8.19+commit.7dd6d404.Emscripten.clang"
  },
  "schemaVersion": "3.4.16",
  "updatedAt": "2024-02-13T09:40:51.743Z",
  "devdoc": {
    "kind": "dev",
    "methods": {},
    "version": 1
  },
  "userdoc": {
    "kind": "user",
    "methods": {},
    "version": 1
  }
}