{
  "contractName": "SupplyChainRSCF",
  "abi": [
    {
      "anonymous": false,
      "inputs": [
        {
          "indexed": false,
          "internalType": "string",
          "name": "info",
          "type": "string"
        }
      ],
      "name": "Info",
      "type": "event"
    },
    {
      "anonymous": false,
      "inputs": [
        {
          "indexed": false,
          "internalType": "uint256",
          "name": "id",
          "type": "uint256"
        },
        {
          "indexed": false,
          "internalType": "address",
          "name": "owner",
          "type": "address"
        },
        {
          "indexed": false,
          "internalType": "string",
          "name": "name",
          "type": "string"
        },
        {
          "indexed": false,
          "internalType": "uint256",
          "name": "currentLocation",
          "type": "uint256"
        },
        {
          "indexed": false,
          "internalType": "uint256",
          "name": "date",
          "type": "uint256"
        }
      ],
      "name": "ProductAdded",
      "type": "event"
    },
    {
      "anonymous": false,
      "inputs": [
        {
          "indexed": false,
          "internalType": "uint256",
          "name": "id",
          "type": "uint256"
        },
        {
          "indexed": false,
          "internalType": "string",
          "name": "currentLocation",
          "type": "string"
        }
      ],
      "name": "locationChanged",
      "type": "event"
    },
    {
      "inputs": [
        {
          "internalType": "uint256",
          "name": "",
          "type": "uint256"
        }
      ],
      "name": "ProductMap",
      "outputs": [
        {
          "internalType": "uint256",
          "name": "id",
          "type": "uint256"
        },
        {
          "internalType": "address",
          "name": "owner",
          "type": "address"
        },
        {
          "internalType": "string",
          "name": "name",
          "type": "string"
        },
        {
          "internalType": "uint256",
          "name": "currentLocation",
          "type": "uint256"
        },
        {
          "internalType": "uint256",
          "name": "date",
          "type": "uint256"
        }
      ],
      "stateMutability": "view",
      "type": "function"
    },
    {
      "inputs": [
        {
          "internalType": "uint256",
          "name": "",
          "type": "uint256"
        }
      ],
      "name": "Products",
      "outputs": [
        {
          "internalType": "uint256",
          "name": "id",
          "type": "uint256"
        },
        {
          "internalType": "address",
          "name": "owner",
          "type": "address"
        },
        {
          "internalType": "string",
          "name": "name",
          "type": "string"
        },
        {
          "internalType": "uint256",
          "name": "currentLocation",
          "type": "uint256"
        },
        {
          "internalType": "uint256",
          "name": "date",
          "type": "uint256"
        }
      ],
      "stateMutability": "view",
      "type": "function"
    },
    {
      "inputs": [
        {
          "internalType": "uint256",
          "name": "",
          "type": "uint256"
        }
      ],
      "name": "productAdded",
      "outputs": [
        {
          "internalType": "bool",
          "name": "",
          "type": "bool"
        }
      ],
      "stateMutability": "view",
      "type": "function"
    },
    {
      "inputs": [],
      "name": "productCount",
      "outputs": [
        {
          "internalType": "uint256",
          "name": "",
          "type": "uint256"
        }
      ],
      "stateMutability": "view",
      "type": "function"
    },
    {
      "inputs": [
        {
          "internalType": "string",
          "name": "_name",
          "type": "string"
        }
      ],
      "name": "addProduct",
      "outputs": [
        {
          "internalType": "bool",
          "name": "",
          "type": "bool"
        }
      ],
      "stateMutability": "nonpayable",
      "type": "function"
    },
    {
      "inputs": [
        {
          "internalType": "string",
          "name": "_location",
          "type": "string"
        },
        {
          "internalType": "uint256",
          "name": "_id",
          "type": "uint256"
        },
        {
          "internalType": "address",
          "name": "_new_owner",
          "type": "address"
        }
      ],
      "name": "changeLocation",
      "outputs": [],
      "stateMutability": "nonpayable",
      "type": "function"
    },
    {
      "inputs": [
        {
          "internalType": "uint256",
          "name": "_id",
          "type": "uint256"
        }
      ],
      "name": "fetchInfo",
      "outputs": [
        {
          "internalType": "string",
          "name": "",
          "type": "string"
        }
      ],
      "stateMutability": "view",
      "type": "function"
    },
    {
      "inputs": [
        {
          "internalType": "uint256",
          "name": "_id",
          "type": "uint256"
        }
      ],
      "name": "fetchAddress",
      "outputs": [
        {
          "internalType": "address",
          "name": "",
          "type": "address"
        }
      ],
      "stateMutability": "view",
      "type": "function"
    },
    {
      "inputs": [
        {
          "internalType": "uint256",
          "name": "_id",
          "type": "uint256"
        }
      ],
      "name": "fetchAllLocation",
      "outputs": [
        {
          "internalType": "string[15]",
          "name": "",
          "type": "string[15]"
        }
      ],
      "stateMutability": "view",
      "type": "function"
    }
  ],
  "bytecode": "0x60806040526000805534801561001457600080fd5b50611900806100246000396000f3fe608060405234801561001057600080fd5b50600436106100935760003560e01c8063ce83953d11610066578063ce83953d14610148578063dba3f6aa14610178578063dfe00c51146101ac578063e0f6ef87146101dc578063f6126cf3146101fa57610093565b80630a5eb46c146100985780631cfe762f146100b457806336f3b99d146100e4578063618ff20914610118575b600080fd5b6100b260048036038101906100ad9190610ea2565b61022a565b005b6100ce60048036038101906100c99190610f11565b6103f9565b6040516100db9190610f59565b60405180910390f35b6100fe60048036038101906100f99190610f11565b610419565b60405161010f959493929190611011565b60405180910390f35b610132600480360381019061012d9190610f11565b6104f7565b60405161013f919061106b565b60405180910390f35b610162600480360381019061015d9190610f11565b61054b565b60405161016f9190611186565b60405180910390f35b610192600480360381019061018d9190610f11565b610687565b6040516101a3959493929190611011565b60405180910390f35b6101c660048036038101906101c191906111a8565b610775565b6040516101d39190610f59565b60405180910390f35b6101e46108f8565b6040516101f191906111f1565b60405180910390f35b610214600480360381019061020f9190610f11565b6108fe565b604051610221919061120c565b60405180910390f35b816003818154811061023f5761023e61122e565b5b906000526020600020906006020160010160009054906101000a900473ffffffffffffffffffffffffffffffffffffffff1673ffffffffffffffffffffffffffffffffffffffff163373ffffffffffffffffffffffffffffffffffffffff16146102a857600080fd5b6000600384815481106102be576102bd61122e565b5b90600052602060002090600602019050600115156002600086815260200190815260200160002060009054906101000a900460ff16151514610335576040517f08c379a000000000000000000000000000000000000000000000000000000000815260040161032c906112a9565b60405180910390fd5b80600301600081548092919061034a906112f8565b919050555084816005016000836003015481526020019081526020016000209081610375919061154c565b50828160010160006101000a81548173ffffffffffffffffffffffffffffffffffffffff021916908373ffffffffffffffffffffffffffffffffffffffff1602179055507f136456627f0fdcbc663467816d140d084ef4efabd82daf4458bcee9b5d48652584866040516103ea92919061161e565b60405180910390a15050505050565b60026020528060005260406000206000915054906101000a900460ff1681565b60016020528060005260406000206000915090508060000154908060010160009054906101000a900473ffffffffffffffffffffffffffffffffffffffff16908060020180546104689061136f565b80601f01602080910402602001604051908101604052809291908181526020018280546104949061136f565b80156104e15780601f106104b6576101008083540402835291602001916104e1565b820191906000526020600020905b8154815290600101906020018083116104c457829003601f168201915b5050505050908060030154908060040154905085565b6000806003838154811061050e5761050d61122e565b5b906000526020600020906006020160010160009054906101000a900473ffffffffffffffffffffffffffffffffffffffff16905080915050919050565b610553610c8c565b6000600383815481106105695761056861122e565b5b9060005260206000209060060201600301549050610585610c8c565b60005b82811161067c57600385815481106105a3576105a261122e565b5b9060005260206000209060060201600501600082815260200190815260200160002080546105d09061136f565b80601f01602080910402602001604051908101604052809291908181526020018280546105fc9061136f565b80156106495780601f1061061e57610100808354040283529160200191610649565b820191906000526020600020905b81548152906001019060200180831161062c57829003601f168201915b50505050508282600f81106106615761066061122e565b5b60200201819052508080610674906112f8565b915050610588565b508092505050919050565b6003818154811061069757600080fd5b90600052602060002090600602016000915090508060000154908060010160009054906101000a900473ffffffffffffffffffffffffffffffffffffffff16908060020180546106e69061136f565b80601f01602080910402602001604051908101604052809291908181526020018280546107129061136f565b801561075f5780601f106107345761010080835404028352916020019161075f565b820191906000526020600020905b81548152906001019060200180831161074257829003601f168201915b5050505050908060030154908060040154905085565b60008082511161078457600080fd5b600080815480929190610796906112f8565b91905055506000600160008054815260200190815260200160002090506000548160000181905550338160010160006101000a81548173ffffffffffffffffffffffffffffffffffffffff021916908373ffffffffffffffffffffffffffffffffffffffff16021790555082816002019081610812919061154c565b50600081600301819055504281600401819055506040518060400160405280600181526020017f300000000000000000000000000000000000000000000000000000000000000081525081600501600080548152602001908152602001600020908161087e919061154c565b506001600260008054815260200190815260200160002060006101000a81548160ff0219169083151502179055507f9d19a1275b5cd25f1a18c08dc005b2ef4e5c26bc01e1af7dea4f6dc87bc39b5d60005433856000426040516108e6959493929190611689565b60405180910390a16001915050919050565b60005481565b60606000610aca600384815481106109195761091861122e565b5b906000526020600020906006020160020180546109359061136f565b80601f01602080910402602001604051908101604052809291908181526020018280546109619061136f565b80156109ae5780601f10610983576101008083540402835291602001916109ae565b820191906000526020600020905b81548152906001019060200180831161099157829003601f168201915b5050505050600385815481106109c7576109c661122e565b5b90600052602060002090600602016005016000600387815481106109ee576109ed61122e565b5b90600052602060002090600602016003015481526020019081526020016000208054610a199061136f565b80601f0160208091040260200160405190810160405280929190818152602001828054610a459061136f565b8015610a925780601f10610a6757610100808354040283529160200191610a92565b820191906000526020600020905b815481529060010190602001808311610a7557829003601f168201915b5050505050610ac560038781548110610aae57610aad61122e565b5b906000526020600020906006020160040154610ad5565b610c5d565b905080915050919050565b606060008203610b1c576040518060400160405280600181526020017f30000000000000000000000000000000000000000000000000000000000000008152509050610c58565b600082905060005b60008214610b4e578080610b37906112f8565b915050600a82610b479190611712565b9150610b24565b60008167ffffffffffffffff811115610b6a57610b69610ce3565b5b6040519080825280601f01601f191660200182016040528015610b9c5781602001600182028036833780820191505090505b50905060008290505b60008614610c5057600181610bba9190611743565b90506000600a8088610bcc9190611712565b610bd69190611777565b87610be19190611743565b6030610bed91906117c6565b905060008160f81b905080848481518110610c0b57610c0a61122e565b5b60200101907effffffffffffffffffffffffffffffffffffffffffffffffffffffffffffff1916908160001a905350600a88610c479190611712565b97505050610ba5565b819450505050505b919050565b6060838383604051602001610c7493929190611883565b60405160208183030381529060405290509392505050565b604051806101e00160405280600f905b6060815260200190600190039081610c9c5790505090565b6000604051905090565b600080fd5b600080fd5b600080fd5b600080fd5b6000601f19601f8301169050919050565b7f4e487b7100000000000000000000000000000000000000000000000000000000600052604160045260246000fd5b610d1b82610cd2565b810181811067ffffffffffffffff82111715610d3a57610d39610ce3565b5b80604052505050565b6000610d4d610cb4565b9050610d598282610d12565b919050565b600067ffffffffffffffff821115610d7957610d78610ce3565b5b610d8282610cd2565b9050602081019050919050565b82818337600083830152505050565b6000610db1610dac84610d5e565b610d43565b905082815260208101848484011115610dcd57610dcc610ccd565b5b610dd8848285610d8f565b509392505050565b600082601f830112610df557610df4610cc8565b5b8135610e05848260208601610d9e565b91505092915050565b6000819050919050565b610e2181610e0e565b8114610e2c57600080fd5b50565b600081359050610e3e81610e18565b92915050565b600073ffffffffffffffffffffffffffffffffffffffff82169050919050565b6000610e6f82610e44565b9050919050565b610e7f81610e64565b8114610e8a57600080fd5b50565b600081359050610e9c81610e76565b92915050565b600080600060608486031215610ebb57610eba610cbe565b5b600084013567ffffffffffffffff811115610ed957610ed8610cc3565b5b610ee586828701610de0565b9350506020610ef686828701610e2f565b9250506040610f0786828701610e8d565b9150509250925092565b600060208284031215610f2757610f26610cbe565b5b6000610f3584828501610e2f565b91505092915050565b60008115159050919050565b610f5381610f3e565b82525050565b6000602082019050610f6e6000830184610f4a565b92915050565b610f7d81610e0e565b82525050565b610f8c81610e64565b82525050565b600081519050919050565b600082825260208201905092915050565b60005b83811015610fcc578082015181840152602081019050610fb1565b60008484015250505050565b6000610fe382610f92565b610fed8185610f9d565b9350610ffd818560208601610fae565b61100681610cd2565b840191505092915050565b600060a0820190506110266000830188610f74565b6110336020830187610f83565b81810360408301526110458186610fd8565b90506110546060830185610f74565b6110616080830184610f74565b9695505050505050565b60006020820190506110806000830184610f83565b92915050565b6000600f9050919050565b600081905092915050565b6000819050919050565b600082825260208201905092915050565b60006110c282610f92565b6110cc81856110a6565b93506110dc818560208601610fae565b6110e581610cd2565b840191505092915050565b60006110fc83836110b7565b905092915050565b6000602082019050919050565b600061111c82611086565b6111268185611091565b9350836020820285016111388561109c565b8060005b85811015611174578484038952815161115585826110f0565b945061116083611104565b925060208a0199505060018101905061113c565b50829750879550505050505092915050565b600060208201905081810360008301526111a08184611111565b905092915050565b6000602082840312156111be576111bd610cbe565b5b600082013567ffffffffffffffff8111156111dc576111db610cc3565b5b6111e884828501610de0565b91505092915050565b60006020820190506112066000830184610f74565b92915050565b600060208201905081810360008301526112268184610fd8565b905092915050565b7f4e487b7100000000000000000000000000000000000000000000000000000000600052603260045260246000fd5b7f546869732070726f6475637420646f6573206e6f742065786973740000000000600082015250565b6000611293601b83610f9d565b915061129e8261125d565b602082019050919050565b600060208201905081810360008301526112c281611286565b9050919050565b7f4e487b7100000000000000000000000000000000000000000000000000000000600052601160045260246000fd5b600061130382610e0e565b91507fffffffffffffffffffffffffffffffffffffffffffffffffffffffffffffffff8203611335576113346112c9565b5b600182019050919050565b7f4e487b7100000000000000000000000000000000000000000000000000000000600052602260045260246000fd5b6000600282049050600182168061138757607f821691505b60208210810361139a57611399611340565b5b50919050565b60008190508160005260206000209050919050565b60006020601f8301049050919050565b600082821b905092915050565b6000600883026114027fffffffffffffffffffffffffffffffffffffffffffffffffffffffffffffffff826113c5565b61140c86836113c5565b95508019841693508086168417925050509392505050565b6000819050919050565b600061144961144461143f84610e0e565b611424565b610e0e565b9050919050565b6000819050919050565b6114638361142e565b61147761146f82611450565b8484546113d2565b825550505050565b600090565b61148c61147f565b61149781848461145a565b505050565b5b818110156114bb576114b0600082611484565b60018101905061149d565b5050565b601f821115611500576114d1816113a0565b6114da846113b5565b810160208510156114e9578190505b6114fd6114f5856113b5565b83018261149c565b50505b505050565b600082821c905092915050565b600061152360001984600802611505565b1980831691505092915050565b600061153c8383611512565b9150826002028217905092915050565b61155582610f92565b67ffffffffffffffff81111561156e5761156d610ce3565b5b611578825461136f565b6115838282856114bf565b600060209050601f8311600181146115b657600084156115a4578287015190505b6115ae8582611530565b865550611616565b601f1984166115c4866113a0565b60005b828110156115ec578489015182556001820191506020850194506020810190506115c7565b868310156116095784890151611605601f891682611512565b8355505b6001600288020188555050505b505050505050565b60006040820190506116336000830185610f74565b81810360208301526116458184610fd8565b90509392505050565b6000819050919050565b600061167361166e6116698461164e565b611424565b610e0e565b9050919050565b61168381611658565b82525050565b600060a08201905061169e6000830188610f74565b6116ab6020830187610f83565b81810360408301526116bd8186610fd8565b90506116cc606083018561167a565b6116d96080830184610f74565b9695505050505050565b7f4e487b7100000000000000000000000000000000000000000000000000000000600052601260045260246000fd5b600061171d82610e0e565b915061172883610e0e565b925082611738576117376116e3565b5b828204905092915050565b600061174e82610e0e565b915061175983610e0e565b9250828203905081811115611771576117706112c9565b5b92915050565b600061178282610e0e565b915061178d83610e0e565b925082820261179b81610e0e565b915082820484148315176117b2576117b16112c9565b5b5092915050565b600060ff82169050919050565b60006117d1826117b9565b91506117dc836117b9565b9250828201905060ff8111156117f5576117f46112c9565b5b92915050565b600081905092915050565b600061181182610f92565b61181b81856117fb565b935061182b818560208601610fae565b80840191505092915050565b7f2c00000000000000000000000000000000000000000000000000000000000000600082015250565b600061186d6001836117fb565b915061187882611837565b600182019050919050565b600061188f8286611806565b915061189a82611860565b91506118a68285611806565b91506118b182611860565b91506118bd8284611806565b915081905094935050505056fea26469706673582212209bfb978cb7c6f2cf25016b8f27f73d14b9cfb7e17c48dbfb697013f0cf637e8064736f6c63430008130033",
  "immutableReferences": {},
  "source": "// SPDX-License-Identifier: MIT\r\npragma experimental ABIEncoderV2;\r\npragma solidity >=0.4.22 <0.9.0;\r\n\r\ncontract SupplyChainRSCF {\r\n\r\n    //utility functions\r\n    function uint2str(uint _i) internal pure returns (string memory _uintAsString) {\r\n        if (_i == 0) {\r\n            return \"0\";\r\n        }\r\n        uint j = _i;\r\n        uint len;\r\n        while (j != 0) {\r\n            len++;\r\n            j /= 10;\r\n        }\r\n        bytes memory bstr = new bytes(len);\r\n        uint k = len;\r\n        while (_i != 0) {\r\n            k = k-1;\r\n            uint8 temp = (48 + uint8(_i - _i / 10 * 10));\r\n            bytes1 b1 = bytes1(temp);\r\n            bstr[k] = b1;\r\n            _i /= 10;\r\n        }\r\n        return string(bstr);\r\n    }\r\n    function append(string memory a, string memory b, string memory c) internal pure returns (string memory) {\r\n    return string(abi.encodePacked(a, ',', b, ',', c));\r\n}\r\n\r\n   uint256 public productCount =0;\r\n   \r\n   //mapping: key--value\r\n   mapping(uint256 => Product) public ProductMap;\r\n   mapping(uint => bool) public productAdded;\r\n   Product[] public Products;\r\n\r\n    struct Product {\r\n        uint256 id;\r\n        address owner;\r\n        string name;\r\n        uint256 currentLocation;\r\n        uint256 date;\r\n        mapping(uint256 => string) Locations;\r\n    }\r\n\r\n    //following is events\r\n    event ProductAdded( \r\n        uint256 id,\r\n        address owner,\r\n        string name,\r\n        uint currentLocation,\r\n        uint256 date\r\n    );\r\n\r\n    event locationChanged(uint256 id, string currentLocation);\r\n\r\n    event Info( string info);\r\n\r\n    //following is modifiers\r\n    modifier owner_only(uint _id){\r\n        require(msg.sender == Products[_id].owner);\r\n        _;\r\n    }\r\n\r\n    //main methods\r\n    function addProduct(string memory _name)  public returns (bool){\r\n\r\n        require(bytes(_name).length > 0);\r\n        productCount++;\r\n        //TypeError: Types in storage containing (nested) mappings cannot be assigned to\r\n        // Products[productCount] = Product(productCount, msg.sender, _name, 0, block.timestamp);\r\n        Product storage newProduct = ProductMap[productCount];\r\n        newProduct.id= productCount;\r\n        newProduct.owner = msg.sender;\r\n        newProduct.name = _name;\r\n        newProduct.currentLocation = 0;\r\n        newProduct.date = block.timestamp;\r\n        newProduct.Locations[productCount] = \"0\";\r\n        productAdded[productCount] = true;\r\n        emit ProductAdded(productCount, msg.sender, _name, 0, block.timestamp);\r\n        return true;\r\n    }\r\n\r\n    function changeLocation( string memory _location  , uint256 _id, address _new_owner) public owner_only(_id){\r\n\r\n        //  Product storage _product = Products[_id];\r\n         Product storage _product = Products[_id];\r\n        require(productAdded[_id] == true, \"This product does not exist\");\r\n         _product.currentLocation++;\r\n         _product.Locations[_product.currentLocation] = _location;\r\n         _product.owner = _new_owner;\r\n        //  Products[_id] = _product;\r\n\r\n         emit locationChanged( _id, _location);\r\n\r\n    }\r\n\r\n    function fetchInfo( uint256 _id)public view returns(string memory) {\r\n\r\n        string memory _info  = append(\r\n            Products[_id].name,\r\n            Products[_id].Locations[Products[_id].currentLocation],\r\n           uint2str(Products[_id].date));\r\n        return _info;\r\n    }\r\n\r\n     function fetchAddress( uint _id) public view returns (address){\r\n        \r\n        address str = Products[_id].owner;\r\n        return str;\r\n    }\r\n\r\n    function fetchAllLocation( uint _id) public view returns (string[15] memory){\r\n        uint cLocat = Products[_id].currentLocation;\r\n        string[15] memory temp;\r\n        for( uint i = 0 ; i <=cLocat;i++){\r\n            temp[i] = Products[_id].Locations[i];\r\n        }\r\n        return temp;\r\n    }\r\n}",
  "sourcePath": "D:\\SupplyChainDev\\trufflerscf\\contracts\\SupplyChainRSCF.sol",
  "compiler": {
    "name": "solc",
    "version": "0.8.19+commit.7dd6d404.Emscripten.clang"
  },
  "schemaVersion": "3.4.16",
  "updatedAt": "2023-10-22T14:01:00.098Z",
  "devdoc": {
    "kind": "dev",
    "methods": {},
    "version": 1
  },
  "userdoc": {
    "kind": "user",
    "methods": {},
    "version": 1
  }
}